:020000041000EA
:1000000000B5324B212058609868022188439860DF
:10001000D860186158612E4B002199600221596106
:100020000121F02299502B49196001219960352056
:1000300000F044F80222904214D00621196600F024
:1000400034F8196E01211966002018661A6600F04E
:100050002CF8196E196E196E052000F02FF8012189
:100060000842F9D1002199601B49196000215960AB
:100070001A491B48016001219960EB211966A021F2
:10008000196600F012F800219960164914480160C1
:100090000121996001BC002800D000471248134993
:1000A000086003C880F30888084703B5996A0420EC
:1000B0000142FBD001200142F8D103BD02B5186610
:1000C0001866FFF7F2FF186E186E02BD00000240BE
:1000D000000000180000070000035F00212200005C
:1000E000F4000018222000A00001001008ED00E03C
:1000F00000000000000000000000000074B24E7A12
:1001000000200420F7010010CB010010CD010010E9
:10011000C9010010C9010010C9010010C901001077
:10012000C9010010C9010010C9010010CF01001061
:10013000C9010010C9010010D1010010D301001045
:10014000C1010010C1010010C1010010C101001067
:10015000C1010010C1010010C1010010C101001057
:10016000C1010010C1010010C1010010C101001047
:10017000C1010010C1010010C1010010C101001037
:10018000C1010010C1010010C1010010C101001027
:10019000C1010010C1010010C1010010C101001017
:1001A000C1010010C1010010C1010010C101001007
:1001B000C1010010C1010010C1010010C1010010F7
:1001C000EFF30580103800BE00BE00BE00BE00BECA
:1001D00000BE00BEF2EB88713040001050400010AD
:1001E0003802001090A31AE700201E49086006C8D4
:1001F00081F3088810471C480068002801D00020BF
:10020000F3E70DA40ECC002902D000F012F8F9E7B4
:100210001649174A002000E001C19142FCD115495E
:100220008847154988471549884700BEFDE701C939
:1002300001C29A42FBD3704750400010C00000201A
:1002400008100020984F0010000004200000042037
:10025000984F00100010042000100420000000003F
:100260007047000008ED00E0000000D008100020FA
:10027000241B002049200010A10200104120001082
:1002800010B504001F2100F0CDFB0022200000214A
:1002900000F0E0FB0021200000F0EEFB10BDC046A6
:1002A000F0B5DE4657464E464546E0B597B003F0FA
:1002B0001BFC0021002003F0B5FAAE4CD026231D14
:1002C000984601270D94360625780134280000F061
:1002D000E5FB3B00AB40002200212800B36200F0A8
:1002E000B9FB4445F0D1A44CD026231D98460127E4
:1002F000360625780134280000F0D0FB3B00AB40E7
:10030000002201212800B36200F0A4FB4445F0D193
:10031000D026082501243606280000F0BFFB230064
:10032000AB40280000220121B362013500F092FBAE
:100330000B2DF1D10B2000F0B1FB80231B01B36228
:10034000012200210B2000F085FB73687268DB0539
:10035000DB0F9205D20F89495B001343884D894812
:100360000B700E9101210A95286001F0D1FF864E95
:100370008649306028680B9601F0E6FF2D68844BB3
:100380003668E918090D06310700C9B20C2000F0E3
:1003900049FB310001230C220094280002F048F8A8
:1003A00080235B021293FB1CFA011B031343794A5F
:1003B000052013401393784B1593784B149301F059
:1003C000EBFA01F08DFD764901F06FFDEC21890516
:1003D00001F068FD804601F0ABFD84B20020002CE6
:1003E0000DD0200001F07CFD011C404601F057FDBE
:1003F0008721C90501F06DFD01F09AFDC0B224040A
:10040000000220433A003100129012AB280002F0A3
:1004100067F801231A00B240296805240A430B99A2
:10042000A44609685F4C0800103083405E482A608B
:100430000C900500A04600200A9A890012685B4FC4
:10044000561829786C7889007918095D00291BD124
:1004500041468445A4410C405549641851680B42FB
:10046000FCD10130C0B2346102350C28E9D1514CC5
:1004700051681942FCD10130C0B23461182806D04D
:100480001428F4D94C4CF3E782246404E6E701F025
:1004900023FF1A20FFF7F4FE1B20FFF7F1FE01F007
:1004A0007BF90290039101F077F9444B04900F938C
:1004B000434B05910793434B1093434B1193D02328
:1004C0001B069B4601200021404202F073FA01F016
:1004D00063F9029B039CC01AA14100297ADA01F05A
:1004E0005BF9049C059D001BA9410029EADB002360
:1004F000364AA4185D4104940595002D04DA0123C1
:10050000334C5B42049305940A9B00201A680B9BB2
:100510000C9C1D680123290010318B4005218C465D
:100520002049AD00884655192178667889007918E8
:10053000895D00291BD141468445B6410E401C49C6
:10054000761851680B42FCD10130C0B22E610234E2
:100550000C28E9D1174C51681942FCD10130C0B2C6
:100560002C611828AED01428F4D9134CF3E7822656
:100570007604E6E7C43C0010C03C0010211B0020BC
:10058000FC1A002000002050001B0020C83C001076
:100590000000E0AFFFFFFF9F00300020000006706A
:1005A0000024F44A000201FE883C00100C1B0020CD
:1005B000000001040000010300040001CC1A002027
:1005C000201B0020A03C0010B03C0010204E00007A
:1005D000FFFFFF7F0D9B3D009846012399460023B6
:1005E000089709979A4647460F9C4E463B78082045
:1005F0009E4098465B4600215E629E6100F0AEFF21
:100600005B465A682378D20600D539E1042B02D81C
:100610000133DBB22370052B01D14B462B705B46B7
:100620005A686378920600D51CE1042B02D8013386
:10063000DBB26370052B01D14B466B705B465A6889
:10064000A378520600D5FFE0042B02D80133DBB2B9
:10065000A370052B01D14B46AB705B465A68E3781B
:10066000120600D5E2E0042B02D80133DBB2E370BE
:10067000052B01D14B46EB705B4600229E620021A8
:10068000404600F0E7F9BC4B0434013704359C4286
:10069000ABD102980399FA220023920080185941A5
:1006A000089E02900391099F002904DA0123B34CAC
:1006B0005B42029303945B465A465B685268DB05D3
:1006C0000E98DB0F9205D20F5B001343027810994E
:1006D000079C5BB292001A438A5C2178037052181F
:1006E0000020227002F0CEFE002800D1F7E606229C
:1006F000002112A801F074FC38000022119B103078
:100700003178002977D01978002974D0052A6DD95D
:100710007178002902D05978002912D1B1780029C6
:1007200002D0997800290CD1F178002909D0D97824
:10073000002906D0052A04D810AD541C0835A95448
:10074000E2B2043604338642DAD15B465B685B056D
:1007500000D4A3E05B465B681B0500D5BFE0E0204A
:100760008749C0010B680340864803600420864B1C
:100770001860FC300B680342FCD080234C68096889
:100780005B014B40E021C9010B407E4980200B609A
:1007900004217D4BA4B21960794940000B680342E3
:1007A000FCD0E120079B49681B7889B25BB28000CE
:1007B000844278D3C8252D01AC4200D999E0E120CC
:1007C0008000814200D2A1E0C8200001814200D90E
:1007D000B1E0032B00DDA4E0033300DAC2E0002225
:1007E000002112AB002002F069FE78E610AD541C27
:1007F0000835A954E2B27178002909D05978002946
:1008000006D0052A9DD810AD541C0835A954E2B273
:10081000B178002988D09978002985D0052A90D808
:1008200010AD541C0835A954E2B27DE7002B08D066
:10083000013BDBB2E370052B00D11BE7002B00D09E
:100840001AE75346EB7017E7002B08D0013BDBB2E9
:10085000A370052B00D1FEE6002B00D0FDE6534629
:10086000AB70FAE6002B08D0013BDBB26370052BBE
:1008700000D1E1E6002B00D0E0E653466B70DDE6E8
:10088000002B08D0013BDBB22370052B00D1C4E65E
:10089000002B00D0C3E653462B70C0E6052A5AD978
:1008A0005B465B685BE7052A4ED981420FD3C822BD
:1008B000120191420BD8032B01DC03338FDA0023A2
:1008C000079A13708BE7814201D3A942F3D903330E
:1008D000DBB2062B83D90023079A13707FE7052A22
:1008E00000D93CE7452110A8531C08308154DAB2E6
:1008F00035E7052AE7D84F2410AD501C0835AC5415
:10090000C2B2E1208000814200D35DE7052ADED833
:10091000512010AC511C0834A054CAB2032B00DC87
:100920005AE7052ACBD84B2310A908318B54002352
:10093000079A137053E7052AC9D8522010AC511CEE
:100940000834A054CAB244E7502410AD501C0835F6
:10095000AC54C2B233E7582110A8531C083081545C
:10096000DAB2F7E6052AAAD84E2310A908318B542B
:100970000023079A137032E7DC1A0020FFFFFF7F85
:1009800000C0044000D0044000E00440004870472C
:10099000C03E0010004870477C3E00100048704781
:1009A000583E001000280AD1184B9C466246184B4E
:1009B0005380063BFF3B6246604613807047042825
:1009C0001AD8144B8000C0580278002A19D00F4B57
:1009D00001309C46991C002303E0013302311F2B98
:1009E0000CD00A80C25C002AF7D1C0220233DBB2ED
:1009F0005B0092001343DEE70020DFE7D0239B007B
:100A0000D9E7024A044B9446D5E7C0468016002039
:100A100009040000400F002002030000002070477E
:100A20007047C04610B54024074A83009A181268E0
:100A3000C0005440C0222240044C1B191A60044BD1
:100A4000C018416010BDC04604C0014004D0014040
:100A500000400140064B8000C3181B68C90092008B
:100A60000A435A400C231340024A8018036070471F
:100A700004C0014004D001408000002904D0054B8F
:100A8000C018402303607047034BC0184023036025
:100A9000F9E7C04604E0014004F001400123D02200
:100AA0008340120693629361084A83009A18116882
:100AB0004022514080320A400549C0005B181A604C
:100AC000044BC018052343607047C04604C0014072
:100AD00004D00140004001408023DB051868000F6E
:100AE0007047C0460FB400B5084883B001F0D6FB8C
:100AF000049B002B07D005A91800019101F084FA8E
:100B0000034801F0CBFB012001F096FA283D0010CC
:100B1000A83D0010EFF3108072B6034A1368002B53
:100B2000FCD0BFF35F8F70472C0100D0BFF35F8F05
:100B30000022024B1A6080F3108870472C0100D00D
:100B400070B58C461600EFF3108472B60F490B682F
:100B5000002BFCD0BFF35F8F6346DB08C51807226C
:100B6000C05C63461A40012393401A0002400342CE
:100B700007D118432870BFF35F8F0A6084F3108891
:100B800070BD61463000FFF7ADFFC0462C0100D0BC
:100B9000F8B5CE4647468C4680B51C00EFF310886A
:100BA00072B61C490B68002BFCD0BFF35F8FA242CA
:100BB00021D80723994602E00132944218D34946CE
:100BC000012611408E40D308C718C35C1E42F3D1E2
:100BD000100033433B70BFF35F8F00220D4B1A6050
:100BE00088F3108800280EDBC0BCB946B046F8BDBB
:100BF00001204042EFE7BFF35F8F00230B6088F3D3
:100C00001088012040426346002BEDD00898FFF782
:100C100069FFC0462C0100D0044A1078431CDBB2A7
:100C2000172B00D9102313707047C046540F0020B3
:100C300000B5054B83B00100009318221F23034821
:100C4000FFF7A6FF03B000BD383D00104C16002092
:100C50000021044B044ABFF35F8F02C39342FAD1D1
:100C60007047C046000100D0800100D0084B094AFF
:100C70001360094A1360094A1360094A1360094A5C
:100C80001360094A1360094A1360094A13607047E8
:100C90008080808000E400E004E400E008E400E0FC
:100CA0000CE400E010E400E014E400E018E400E0EC
:100CB0001CE400E01F2318401E3B8340002905D0A0
:100CC000C021044A490053501360704780220149F3
:100CD0008B50FAE700E100E010B5EFF3108C72B62C
:100CE0000F4A1368002BFCD0BFF35F8F0D4B103001
:100CF0009B6880001B580C4A934201D099420CD14A
:100D0000084B9B681950BFF35F8FBFF35F8F0022C2
:100D1000034B1A608CF3108810BD00F0EBFEC04648
:100D2000240100D000ED00E0C1010010F0B5DE4666
:100D300057464E464546E0B58B4685B0EFF31088E2
:100D400072B616005B4A1368002BFCD0B246BFF3A4
:100D50005F8F002558494D57002D00DAA8E06B0041
:100D6000564A01935B199B00D418A77910300F7075
:100D700053498000896884460F58B91A2F2933D8FF
:100D8000012039008143CE79564500D86AE0A1465A
:100D90005646039307E05800C01880001018C47925
:100DA000B4424DD901000623CB56002BF3DA081DBF
:100DB0004C46B24681460293424B4E46043CA41B2D
:100DC0002405414E640D34438C808D71019949197D
:100DD000890052189380029B3C4993715346D3710A
:100DE0005B461160936017E039498F4260D1394901
:100DF0000127D15238490233D3180439CB1A324A69
:100E00001B055B0D13436380344BE671A380FF2306
:100E1000A3715B462743A3606246294B9B689F50A2
:100E2000BFF35F8FBFF35F8F0022224B1A6088F3FE
:100E3000108805B0F0BCBB46B246A946A046F0BD3E
:100E4000B2460E1D4C46B14688880293039B40056E
:100E5000001504334844D318C31A1B051A485B0D08
:100E60000343AAE79E1CB14691444E460F001C4D19
:100E7000BF1A7F417D432D0D164FA571D752164FD6
:100E80000433043FD318BF1BCB1A3F05043B7E0D30
:100E90001B050D4F5B0D3E431F435346E3715B46FD
:100EA000A3600A4BA7806680044327000B60B3E76A
:100EB00000F020FE240100D0221B0020580F00204B
:100EC00000ED00E001BD000000E0FFFF01488047A9
:100ED000C101001000A1FFFF880F002001BDFFFF2E
:100EE000AAAA00000123034370B59C46EFF30581D5
:100EF000EFF3108572B6214A1368002BFCD0BFF3C4
:100F00005F8F1F4B04001F4AE41A64416243120DB5
:100F10001D4C8900A66852B2765866451CD0062141
:100F2000595691421CD012215956914222D01E216D
:100F30005956914220D02A2159560324914210D06B
:100F4000124B19781A708171BFF35F8F00220B4B1F
:100F50001A6085F3108870BDA3680D4C5C50EFE7F4
:100F600000246100091989005B18FF219971094962
:100F70009980E5E70124F4E70224F2E7240100D098
:100F8000580F0020AAAA000000ED00E0221B00205C
:100F9000C101001001BDFFFF024BC91889000160AB
:100FA0007047C0464000003470B5114C114DAC4242
:100FB0000FD2FF262368002B0CD0FFF72DFE010077
:100FC0002000FFF7E9FFA680BFF35F8F0834AC4233
:100FD000F0D370BDFFF720FE01002000FFF7DCFF1B
:100FE0002671BFF35F8F0834AC42E3D3F1E7C0460C
:100FF000001000200810002010B50400FFF70CFEC0
:1010000001002000FFF7C8FFFF232371BFF35F8FAC
:1010100010BDC04610B504000120FFF709FE034BC8
:10102000C01880002060BFF35F8F10BD4000003407
:101030000A4B1968EFF3108072B60A68002AFCD0D8
:10104000BFF35F8F1B68BFF35F8F00221A6080F3CE
:10105000108840BF002000217047C046081B0020B8
:10106000F0B5DE4657464E464546E0B585B0EFF34F
:10107000058303221A40B34B91005F58012393402C
:101080009B4602925A468846AF4B1A60AF4B039379
:101090005B46AF4843630823FE5E002E37DABB8809
:1010A0001BB2002B00DBA4E0BB79002B00D0E5E0F5
:1010B0000823F95E002920DB4B007A695B18DB000E
:1010C000D3189D68DC686B1C00D104E1A0480100C6
:1010D0004144826A0B69AE1A9B1A9E4215D30123C2
:1010E000026A029883401A420FD0994800F04CFBE4
:1010F0008C4202DCCCD18542CAD940BF05B0F0BCDD
:10110000BB46B246A946A046F0BD0D61EDE77A693F
:10111000730091469B19DB0099444B469C68DD683F
:1011200000F032FB8D42BADC00D1F6E0002D00DA8F
:10113000DBE04A464B4652691B699246039A93424A
:1011400000D1CCE04A460821785E5288000451461E
:1011500010439847009001910099019A0B001343A6
:1011600000D1C2E013000A00002B00DBD9E0200010
:101170002900801A99414B469860D96000229B5EF5
:10118000002B00DA8BE75D007C69EA18D200A21818
:1011900000949468D268A2468A4200DD7FE702D1BB
:1011A000844200D97BE70824A4463B81BC44009CD0
:1011B00000972F006546B4463E0006E05E00F21838
:1011C000D200A2189768D268BA468A4207DC00D1DA
:1011D000B4E0F318DB00E518E35E002BEEDA6646B8
:1011E0004A46009F13802E80BB881BB2002B00DA7A
:1011F0005AE73A69EFF3108172B61368002BFCD0FE
:10120000BFF35F8F0123BE885B42BB8036B23B6970
:10121000BFF35F8F00221A6081F31088002E00DA7E
:1012200042E73B0008333A0099467D6973009B19F9
:101230000824115FDB004846EB18002913DB9C688B
:101240000093A446DC6806E0A34240D00023F95E88
:101250003800002906DB4F007F18FF00EF19FB68FC
:10126000A342F1DD009B068000201E5E1980002E47
:10127000DCDA1700BB79002B00D119E70023BB7122
:101280000823F95E4B1C00D137E73D000835AC461A
:101290007C6903E084464B1C00D109E74B005B18D6
:1012A000DB00E0180A00E15E43881BB2002BF1DA94
:1012B00001256D42EE178560C66008257B5F93426D
:1012C000E9D0634619803B8903803A81E3E7BB6834
:1012D0006345BBD9C6E7631C00D0F7E605E7534674
:1012E00050461B699847002823D14B461B883A6912
:1012F0003B81EFF3108372B611680029FCD0BFF375
:101300005F8F49467A880A803A697E80BFF35F8F93
:101310000021116083F31088C1E6844200D805E7FC
:10132000BDE60B4800F030FA009B019CC0186141FB
:1013300021E753460CCB009201930DE7824500D87C
:1013400047E74CE7E41A00203C70054061100010AC
:101350000040054070B52D4C2569002D04D00A21B0
:101360002B48FFF719FE70BD2A4E0321294800F0D3
:1013700001FAE660FFF750FC274B0322C018D02388
:1013800022701B061B6801216370244B8000A36040
:101390000F2320610220638063694942A180198084
:1013A0000231198647311D83585218315A5275320D
:1013B0005C399952183201319952183201319952DF
:1013C000183201319952083518329D5202311832C3
:1013D000995218320131995218320131995218320A
:1013E0000131995218320131995218320131995212
:1013F0000B4B0C49DC6001303562FFF76DFC0121BD
:101400000320FFF757FC084B1D60A8E7A80F00203A
:10141000081B00200040054040000034FFFF100082
:10142000E41A0020611000103860054070B582B0E9
:101430000092019301000269EFF3108472B6136801
:10144000002BFCD0BFF35F8F0223C85E0D6900281C
:101450003FDB4A69430016001B18DB00D218F35A21
:101460004B80BFF35F8F00232B6084F31088069BB3
:101470001361079B5361009B019C9360D460538868
:1014800001335B045B0C1D1C002B20D0ACB20304A9
:10149000558023430D69EFF3108C72B62C68002C35
:1014A000FCD0BFF35F8F8C88148088800A69BFF3FB
:1014B0005F8F002010608CF310880A780130904014
:1014C000CA68084952181060180002B070BD0125A2
:1014D000DCE7BFF35F8F00232B6084F31088013BB0
:1014E000F2E7C0463C20000010B543890A1493423D
:1014F0001ADD53009B184269DB00D3180469EFF32F
:10150000108C72B62268002AFCD0BFF35F8F5A8815
:10151000090494B2090C8A4208D00369BFF35F8FB3
:1015200000221A608CF31088002010BD094A224363
:101530005A80012302698371BFF35F8F002111601C
:101540008CF31088027804499340C2680120521835
:101550001360EAE70080FFFF3C200000F0B5C646BC
:1015600000B582B004000D0000F016F924184D41BA
:10157000002D02DA01242F4D644206267642F71729
:1015800036196F41AF4214D811D000F005F932007E
:101590003B00121A8B41002B15DC002B46D020009B
:1015A000290000F003F902B080BCB846F0BDA642A5
:1015B000EBD90026002700F0EFF832003B00121AAA
:1015C0008B41002BE9DD00F0E7F832003B00121AF6
:1015D0008B41002B0ADB00230193174B3200009351
:1015E00016483B00FFF722FF0130D8D00023390016
:1015F000B0469C46124A1348536A994204D8966AE8
:101600004645CCD29942CAD10668EFF3108772B62C
:101610003368002BFCD0BFF35F8F0368BFF35F8F8D
:1016200066461E6087F3108820BFE5E7002AB6D023
:10163000C9E7C046FFFFFF7F31100010A80F002050
:1016400000400540081B0020F0B5CE46474680B557
:1016500004000D0085B0EFF305838946002B32D1DD
:10166000404E336883422AD03F4FFB683A78984611
:101670001800039200F088F8039A131D42469B005D
:101680009B5822001B1A9C462B00121A8B411900F2
:10169000002310008B4225DC22D020BF334B586A38
:1016A00048452BD3401B9A6A431E98410023A2420F
:1016B0005B41184305B0C0BCB946B046F0BD736885
:1016C0008B42D1D1E9E7294900204B6AAB42F1D3E3
:1016D0008A6A5B1B591E8B41A24240411843E9E7CD
:1016E0008445DAD900F058F822002B00121A8B41F9
:1016F000002B05DA1D4A536A4B4529D20020D9E751
:10170000002301931A4B2200009338002B00FFF7AF
:101710008DFE0028EEDD154B30C65A6A4A4515D3BA
:101720009B6AA34210D301003800FFF7DDFE0F4A89
:101730000020536A4B45BDD3926A5B1B591E8B41F7
:10174000A24240411843B5E74A45ECD120BFEAE741
:101750000020926A5B1BA24240415A1E93411843EB
:10176000A8E7C046A00F0020A80F002000400540B9
:101770003110001010B5024A0248FFF7E1F910BD20
:10178000543D0010501600200300416A0A00986A78
:10179000596A8A42FAD17047034B596A0A00986A1B
:1017A000596A9142FAD1704700400540064A536A8F
:1017B0009942FCD807D1044B02E05A6A914202D107
:1017C0009A6A9042F9D8704700400540F8B5DE4665
:1017D0004E4645465746E0B505008B4618000A9927
:1017E000914600F0B1FA0A9B6C001E026419304B5E
:1017F000A400E418636880469E4200D966602F1FEB
:10180000FBB29A46012B2FD9C0238022294FAD006D
:101810009B0179591201E3181A6000291BD14B462C
:1018200022685B015340E022134080225201A2183B
:1018300013605346012B2FD9802380229B01E3188C
:1018400012011A60434666607B51F0BCBB46B2464B
:10185000A946A046F8BD786900F076FA0130430049
:101860001B18033BFDD2DAE75B46012BCCD1C0232A
:1018700003229B01E3181A60023AA3681A42FCD0C3
:101880004A46236852015A40E02313408022520105
:10189000A218084F1360AD00584603232168414049
:1018A0000B40136001228240A3681A42FCD0C3E7B8
:1018B0000080004058160020F0B5D6464F464646F8
:1018C000440098462418324BA400E41863688A4602
:1018D0009146C0B5FF2B02D880235B006360061FD2
:1018E000F6B2012E2FD9C02380222A4F85009B01FA
:1018F00079591201E3181A6000291BD14B4622685E
:101900005B015340E022134080225201A218136071
:10191000012E30D9802380229B01E31812011A6026
:1019200080235B00636043467B51E0BCBA46B1460E
:10193000A846F0BD786900F007FA013043001B1893
:10194000033BFDD2DAE75346012BCCD1C02303225F
:101950009B01E3181A60023AA3681A42FCD04A4677
:10196000236852015A40E023134080225201A218FA
:10197000084F1360850050460323216841400B4007
:10198000136001228240A3681A42FCD0C2E7C0461D
:101990000080004058160020014B8000C05870475E
:1019A00058160020F0B5C646040000B523481600BE
:1019B00098460D0000F0C8F90100300000F0C4F9AD
:1019C0004346069A1B04120313439C4623680600F1
:1019D000002B22DB1A4B1B48E218531E9A4180232E
:1019E0005242120B9B011203D218174B1A60174B6D
:1019F0001A60130001688B43FBD12122144B256030
:101A0000E318A6601A602268002AFCDA6246E260E7
:101A100008221A6080BCB846F0BD3F2322681340FC
:101A2000AB42D7D1A3681B051B0D8342D2D1EE2256
:101A3000E368D20213406345CCD1EBE7001BB7004B
:101A40000040FDBF08C0004000E0004000F0004042
:101A5000043000008023024A9B000B43D36270478E
:101A600000800540002310B50100988A1B8B984721
:101A700010BDC046162310B5010018885B88984732
:101A800010BDC046F8B54746CE4680B50F1E18D0EB
:101A900014239946043304000025012698464B463A
:101AA0001888434621681B88984701C4431E984103
:101AB00001350640AF42F2D13000C0BCB946B04655
:101AC000F8BD0126F8E7C046AA23064A1B011360A9
:101AD0008D235B00D3600449044B19605368002BCD
:101AE000FCDA70470040024000B0FA00006002409B
:101AF0007047C04610B50148FEF7F4FF783D00106E
:101B000070B5074D074EB54209D20024013E761B41
:101B1000B608013608CD01349847B442FAD170BDF9
:101B2000483C0010843C0010054B064A06491A60E8
:101B3000064A074B1A6010000B689843FBD17047A8
:101B400000E00040BFCDFBFE08C00040FE7F3C002F
:101B500000F00040044BDB6C002B03D18022034BD0
:101B6000D2021A607047C046000011504C2011503C
:101B7000044A054B1A60054A1368DB018033FBD128
:101B80007047C046FFFFFF0100F0004008C0004062
:101B90004022034B9A675A671A67DA667047C04655
:101BA00000F0014010B5FFF753F810BD70B527499C
:101BB000274E284D761AB4082200302C00D9302246
:101BC0002800920000F012FA2F2C3BD823002A3B69
:101BD000214A052B1BD93020AE197107001B2600A6
:101BE000CB0F002902DAA1006A50661CC01AE31864
:101BF0009B004108EB18C900C9181A605A600833E5
:101C00008B42FAD1012303421CD098438419A300CC
:101C1000EA50631C2F2C15D09B00EA50A31C2E2CDD
:101C200010D09B00EA50E31C2D2C0BD09B00EA50F7
:101C3000231D2C2C06D09B00EA50631D2B2C01D0B9
:101C40009B00EA50054B9D6070BDC046000100102E
:101C5000C001001000000020C101001000ED00E0F4
:101C6000002310B5294C82B0A367FFF72DFF012296
:101C7000274B1A60636C012BFCD10322254B1A60A1
:101C8000224A936B012BFCD1013300930121224A9C
:101C900022480433FFF786FE052301210093204AE2
:101CA0002048FFF77FFE0022022104201E4BFFF791
:101CB00003FE0022012105201C4BFFF7FDFD002241
:101CC000002107201A4BFFF7F7FD00220021082012
:101CD000174BFFF7F1FD8023DB000093002200216A
:101CE0000920134BFFF772FD0022104B0021062044
:101CF000FFF7E2FD0420FFF74FFE0E4900F024F845
:101D000001000020FFF7A6FE02B010BD00800040D9
:101D10003CB0004030B00040002F685900800240C5
:101D2000008C864700C00240001BB7004059730773
:101D3000006CDC0240420F0001480421014B1847AF
:101D4000C00F0020851A0010114A936F9B0813D210
:101D500010665166002905D0FFE7FFE7FFE7516FE6
:101D6000106F704704B5002801D00020C04301F077
:101D70005BFF002104BDC046F0B5146E556E576F71
:101D8000166FFFF7E5FF1466556657671667F0BDD7
:101D9000000000D0132370B51D78012D19D014DD7B
:101DA0001F48FFF767FE06001E48FFF763FE1E4C44
:101DB00080223100200000F019F9022D2DD01B489F
:101DC000FFF750FE1A4B186070BD1A4B164CA364F7
:101DD000F5E7184B144C23606360A360E360236154
:101DE0006361A361E36123626362A362E3622363CD
:101DF0006363A363E36323646364A364E3642365AD
:101E00006365A365E36523666366A366E36623678C
:101E10006367A367E367A364D1E7064BA364CEE7D8
:101E20005344000053460000881100204C3300004A
:101E3000041B0020391E001007B5604601880A0AFD
:101E40000230DF2AFAD1C9B2820804D3028840885E
:101E50000004104300E00068014A5050039007BDA1
:101E60008811002051434343C9188C46110C83B29A
:101E70004B4310B4040C614392B280B250436243AE
:101E80001C041B0C001910BC59411304120CC0187F
:101E900051416144704700004840414048400E4B6A
:101EA0005B6818470C4B1B6818470C4A936F9B08DC
:101EB00002D2094BDB681847F0B5146E556E576FA8
:101EC000166FFFF7F6FF054A1466556657671667E3
:101ED000F0BD014B9B68184788120020000000D01D
:101EE000491A002808D1084670470000C10FC907E9
:101EF00000D54042002817D0F44603B40B4B1B68B2
:101F0000984706BC81409E384042803107D20B067C
:101F100007D04900490AC005104308436047013013
:101F2000F8E7490A8902F5E770470000041B002022
:101F3000014B5B6A1847000088120020132310B57C
:101F40001C781348FFF796FD012C0BD004DD01002F
:101F50008022104800F04AF80F48FFF783FD0F4B2E
:101F6000186010BD0B4C01005422200000F03EF818
:101F70000B4B6365A365E36523666366A366E3664F
:101F800023676367A367E3672362E361E4E7C0460F
:101F900053460000881200204C330000041B002030
:101FA000A51F001007B5604601880A0A0230DF2A23
:101FB000FAD1C9B2820804D30288408800041043D1
:101FC00000E00068014A5050039007BD88120020CD
:101FD00001480421014B1847D00F0020851A00103A
:101FE000014B1B6818470000D00F0020014B5B68B5
:101FF00018470000D00F002010B5002800D110BDF8
:1020000000F002F9FBE7C04610B5094A0300146866
:1020100084B0002C08D0012200910648524203A946
:10202000A047012004B010BD00F038F90020F9E706
:10203000DC1A0020F91F001000BEFDE77047C04603
:1020400010B5FFF7F9FFC04670B5FFF759FD074D12
:10205000074EB54209D20024013E761BB608013670
:1020600008CD01349847B442FAD170BD843C0010C9
:10207000883C0010030010B5080011001B68984749
:1020800010BDC046F8B5437D07000D001600002BBB
:1020900038D0002A1ADD0B780A2B18D00020012E28
:1020A00009D0012421006B5C01340A2B1AD0B44200
:1020B000F8D1864203DD311A3B6828189847AD19DC
:1020C000013D2B780D3B5A4253413B75F8BD037DD2
:1020D000002BE3D102210E483B689847012EEED039
:1020E0000120DEE76B1E5B5C0D2BE0D0884203DA3B
:1020F000091A3B6828189847054802213B68984709
:102100002000D4E70368110028009847DEE7C046A6
:10211000283F0010F0B54646D6464F46C0B582B0BF
:1021200090461C0006000D00FFF736FB00232F4AE7
:1021300012184B41002B02DA01222D4B52422D493D
:1021400008008A4601F060FD81466B1C03D1300017
:1021500001F0FAFC0500002C27D0274F274B1C6804
:10216000002C18D04346002B21D1254B984602E085
:102170002469002C0FD02368002BF9D043461B683C
:10218000002B01D09C42F3D120002A003100B84737
:102190002469002CEFD14B46002B23D1280002B03C
:1021A000E0BCBA46B146A846F0BD164FD6E7144B80
:1021B000984602E02469002CEDD02368002BF9D06A
:1021C00043461B68002B01D0A342F3D12A00310003
:1021D0002000B8476B460A222000DA71D91D093A5F
:1021E000B847E7E7504601F007FDD7E740420F0048
:1021F000FFFFFF7F0010002085200010C016002088
:10220000C816002075200010F0B5CE46474680B5B0
:1022100083B06B460600DD1D2870FFF7BDFA002372
:10222000194A12184B41002B02DA0122174B524275
:1022300017490800894601F0E7FC164B80461C68E8
:10224000002C14D0144F02E02469002C0FD0236816
:10225000002BF9D03B68002B01D09C42F4D1200028
:1022600001222900FFF70EFF2469002CEFD143461D
:10227000002B05D1300003B0C0BCB946B046F0BD5C
:10228000484601F0B9FCF5E740420F00FFFFFF7F31
:1022900000100020C0160020C816002070B50400F1
:1022A00001F052FC01230100050001222000FFF78C
:1022B00031FF084B1C68002C06D06368002B05D04A
:1022C00098472469002CF8D1280070BD2469002C9F
:1022D000F3D1F9E7C016002001230121084A136059
:1022E000084A1360084A080013689843FBD1074A5C
:1022F00011608021490013680B42FCD07047C04632
:1023000000E0004000F0004008C0004000C0044071
:1023100010B50A4B0A4AC418240DA40082B00092DA
:1023200008482200E31CFEF733FC844202DC001B59
:1023300002B010BD01204042FAE7C0460000E0AF05
:10234000D03D001054160020F0B54E464546DE46FE
:102350005746E0B5050083B00F00FEF7DBFB324BBC
:10236000324AEB181B0D9B0091469C46D358012224
:102370003E790521B240202479568046013AA41BBB
:1023800000293FDB8C423AD3100088400C00034206
:1023900035D1B879002843D18A40100092463F6871
:1023A0001A40184239D180208001002E17D0A34650
:1023B0002C0065469C4633000E00110001954A0032
:1023C000BD5A854200D2AD19721812329200013105
:1023D00015519942F3D3019A63465C46944652469E
:1023E000614613434A4653504046FEF79FFB200088
:1023F00003B0F0BCBB46B246A946A046F0BD0124DE
:102400006442F1E7002C02DA07E0013C05D310003A
:10241000A04021000342F8D1BBE709246442E3E76E
:1024200014246442E0E7C0460000E0AF44150020F9
:10243000F0B54E46DE4657464546E0B583B00C0043
:1024400089460CA9844608781F2A42D86100019168
:1024500009196446C90064182500DC352E68B246A7
:102460002600CC363668B3461B4EA1198026B6022C
:102470000E60411E884141421F2008401749401804
:10248000052B0CD9A0271F267F05D83451013943CD
:102490000532053B296032402060052BF6D85201F9
:1024A0009B061343019A4A44D20062441100DC3176
:1024B0000B601300D833186053460B605B46002056
:1024C000CC32136003B0F0BCBB46B246A946A0466E
:1024D000F0BD05204042F5E7CC30000080E0000070
:1024E000944601228A4070B5C6461C00036800B5B8
:1024F00093430360002C30D04A005318DB00C3180C
:102500001D002668C8352E60A66804356E606668B2
:10251000E468DC332E601C605318DB00184CC218D2
:1025200012198024240614601460164A0C1D8A4077
:10253000826001221500A540802408318A40A40150
:1025400004192560614622601F22C0180A40D83055
:102550000260002040BCB04670BD4A005318DB004A
:10256000C3181D008026C83576022E60C0263603AB
:10257000AE60F82604357602DC332E601C60CBE7B3
:10258000D010000001010101F8B500F03BF90C2367
:10259000194DFF22AB6705201849FEF7C7FB184C01
:1025A000402200212000FFF71BFD402700230126C9
:1025B0002121144A66702783A260136063545F313F
:1025C000618445396354104A10496360E26027878B
:1025D000A1620B606362E26201F0EEFA80239B0568
:1025E0002E64EB6490230A4A0120EA508022094BB2
:1025F0005202DA64F8BDC04600001150ED0200201E
:10260000CC160020840010500001105080001050A3
:1026100010D001000020115010B501210520FEF757
:1026200049FB10BD10B500220021024800F00AF954
:1026300010BDC046EC160020044B1970002904D0D0
:1026400080219023024A8902D15070471D1B00202F
:10265000002011500B785B0600D070474B78052B9B
:10266000FBD18A78014B1A60F7E7C0460000115091
:10267000F8B5CE464746CB7880B59B079A0F100039
:10268000012A58D08C780A794B797F211B0221408E
:10269000E50913434A0091462C4E52195201B218D3
:1026A000947001246C40547000245B055B0DD47061
:1026B0001383D076CA00012D2CD0254FD2198F015B
:1026C000BC46B4446746BA60146000292CD0214A45
:1026D000C900891879603F339B09022832D09A01DA
:1026E0004B461D4C5B1921685B01F6181B4B8A1881
:1026F000F16022609A4227D8194A83064A40134360
:10270000802212061343726813600120C0BCB946D0
:10271000B046F8BD134FD2198F01BC46B44467468A
:10272000BA621460002908D100236D0175196B602D
:102730000D4BEB60E9E70020E8E7094AC90089187A
:102740007962C8E7DA01CBE7FFF7D4F9CC160020AD
:102750008400105004001050E01A0020FF0F1050A9
:1027600000001050800010500001105010B501F012
:1027700023FA10BD7F2010B508404000C909401859
:102780001100044A400180181A0000F05BF8012093
:1027900010BDC046CC1600207F23180000B50840AD
:1027A00083B00B4204D14B424B41084A013393663C
:1027B0008022C9094000064B401840010021C01882
:1027C000120101F029FA03B000BDC04600201150EB
:1027D000CC1600207F22130010B50B400A4200D116
:1027E00010BDC9095B005B1804485B01C0180023D9
:1027F00000220349C37001F00FFAF1E7CC16002064
:10280000FFF7FFFF80220A4B520410B51A60094BF4
:1028100009491A6010000B689843FBD180220021FF
:1028200052010648FFF7DCFB0922054B5A6710BD31
:1028300000E0004000F0004008C0004000001050E0
:1028400000001150002310B5C382013382828376C9
:102850000161040001F0C8F9002804D08021902310
:10286000074A8902D150200001F0AEF9002802D0B9
:102870000123237710BD200001F0AEF9FAE7C0462E
:1028800000201150002070477047C0467047C04676
:102890000020704700207047002070477047C046F6
:1028A0007047C0467047C0467047C046024B5878D4
:1028B000431E9841C0B2704728140020024B18787C
:1028C0004007C00F7047C04628140020F0B5D64618
:1028D0004F464646C0B52C4B814698461B788A46E3
:1028E000FF2B4BD100293BD0002154222748FFF772
:1028F00077FB0022264C274B20001A70FEF77CFB4A
:10290000254B1C60254C2000143CFEF783FB200067
:1029100001F0CAF8224B234D1C60234B002B04D03E
:10292000280000E000BF214B186000242B78204FC6
:102930001E4E0DE0336862019B18002B10D05B68BF
:10294000002B0DD0984701342B78E4B2A34209D371
:10295000A342EFD8E31A5B01DB195B68002BF1D1CE
:1029600000200CE042464B46514648461370FFF7A4
:102970000BFE0028F4D04846FFF74EFE0120E0BCD5
:10298000BA46B146A846F0BDFC0F0020281400202E
:10299000201400201E1B00207C140020F40F0020B7
:1029A000801400201C1B0020000000008813002061
:1029B000D43F0010F0B5DE4657464E464546E0B5DA
:1029C000C24B8FB003931B78FF2B00D138E1C04B73
:1029D000C04E0093C04B0BAC0293C04B01933568C3
:1029E0006A69EFF3108172B61368002BFCD0BFF355
:1029F0005F8FA9612800210000F0B6FF6A69AB690A
:102A0000BFF35F8F0021116083F31088002800D18D
:102A100016E16378082BE2D8009A9B00D3589F46B2
:102A20006368002BDBD0A0689847D8E77F22217924
:102A3000A94D0A405300C809EB181B1818000127BC
:102A400030300579BD43057105790337BD43057104
:102A5000002A00D1FBE0A24A1B7D1278934200D3EA
:102A6000ECE0A04A5B011568ED18002D00D1E7E00D
:102A7000A36862792078AD69A847B0E79A4B1A78C5
:102A8000002A00D1DCE01A78013A1A701B78002B7A
:102A9000A5D10122904D01212B78042013432B70E6
:102AA0003423EA5C27788A43EA54EA5C8243EA5496
:102AB0000133EA5C8A43EA54EA5C82430020EA5428
:102AC00000F050FC602223791A40602A00D1E7E030
:102AD000402A00D1EDE0DB06DB0E012B00D10BE13B
:102AE000022B00D1C0E0002B00D0D9E0202A00D179
:102AF00006E2002A00D0D3E06379092B00D9CFE0A9
:102B00007A4A9B00D3589F46734D2B78DB0700D43D
:102B100065E7FFF7C9FE62E7029BDB78DB0700D4BD
:102B20005DE76068FFF7B2FE59E76B4D2B78DB0776
:102B300000D454E728780007C00FFFF7B3FE4EE734
:102B4000674B664A98469246664A00259146424639
:102B50002778B0461B7816000EE04B461B686A01CA
:102B60009B18002B00D178E0DB68380098470135CE
:102B70003378EDB2AB420CD39D42EED3EB1A5B013E
:102B80005344DB683800984701353378EDB2AB42E7
:102B9000F2D2514D542200212800FFF721FA1022D1
:102BA000FF21281DFFF71CFA28002022FF211430E6
:102BB0004646FFF715FA00F0CBFB2379AB700EE722
:102BC000474B27789846474AB24600253E00914633
:102BD00047461B780DE04B461B686A019B18002B8B
:102BE0003ED0DB683000984701353B78EDB2AB4210
:102BF0000DD3AB42EFD8019AEB1A5B01D318DB6817
:102C00003000984701353B78EDB2AB42F1D2029DDE
:102C1000542200212800FFF7E3F91022FF21344855
:102C2000FFF7DEF928002022FF2114305646FFF777
:102C3000D7F900F08DFBFFF733FED0E6934211D0B9
:102C40000FB0F0BCBB46B246A946A046F0BDA36893
:102C50006279207800F09AFBC1E646461E4DAAE74D
:102C60005646E6E71D4D03E77023217A0B4217D144
:102C7000C80982460F330B405B0098461848EB1892
:102C800053441B7D0078834264D216485B01006880
:102C900081469944002A00D154E14B46002B61D172
:102CA00020780021FFF778FD80212078FFF774FD60
:102CB00095E6104800F056FB012138000CAAFFF7FA
:102CC000E1FD002800D08AE6EAE7C046FC0F0020BC
:102CD0002C3F00108014002028140020D43F001046
:102CE0001C1B0020881300201E1B0020503F0010DA
:102CF0002C14002085280010237A22890F2BCFD88E
:102D0000FF231340D54AEB181B791278934234D332
:102D1000C6D1D34D686900F025FB012138006B69ED
:102D20000CAA9847002800D059E6602215002379A4
:102D30001D401A42B4D163790A3B012BB0D800F090
:102D400011FB63790A2B00D17FE138000CA900F058
:102D500099FA44E6834200D0EFE0C14B9946002A3D
:102D600000D1EFE04B46586900F0FCFA4B460121D8
:102D700038005B690CAA9847A3E7BA4A5B0115685B
:102D8000ED18002DC6D18BE7A37999466B7899454C
:102D9000DBD06B78002B00D02BE14B466B70002B07
:102DA00000D123E148460138C0B2FDF7F7FD002805
:102DB00000D170E14378022B00D06CE10122C1798F
:102DC000B1468B11491113400A40302112015B01B9
:102DD00013432A788A4313432B7009239846C378F8
:102DE00082781B021343C31804939C4B80449B4678
:102DF0009B4B07939B4B9A469B4B08932B00454656
:102E00009846049BAB4200D848E16B7801220B2B1B
:102E100003D12B78EA78ED186B78042B00D038E1D9
:102E2000049B00265B1B9BB205935B4609921B78B3
:102E300019E053461B6872019B18002B00D128E152
:102E4000290038001B69059A98470690082803D97D
:102E5000059A824200D30BE15B4601361B78F6B23D
:102E6000B34200D215E1B342E3D8079AF31A5B01EB
:102E7000D318E5E76B780AAA0232137038000123F1
:102E80000CA900F015FAAAE5E088030AC0B20F2BDE
:102E900000D905E775499A008A5897460CA800F0B2
:102EA00067FA3800A179FFF7BDFB02222B781343A4
:102EB0002B7094E5E388012B00D0F1E608222B78F3
:102EC000380093430CA92B7000F0DCF987E5022051
:102ED00029780AAB9A1C8B068908DB0F01400B434B
:102EE0001380380002230CA900F0E2F977E5E388AB
:102EF000012B00D0D4E608222B7813432B7024E753
:102F0000237A22890F2B00D9CAE6FF231340534AA4
:102F1000EB181B791278934228D2524A5B0115684C
:102F2000ED18002D00D1BBE6686900F01BFA012105
:102F300038006B690CAA9847C3E6002A00D0AFE6B8
:102F400000239946022263799B469343012B12D0BA
:102F50005B46002B00D0A3E62B00434453443033A0
:102F60001B790AAA9B07DB0F0232B9E7934200D014
:102F700096E63B4DD8E7E388002B12D1039B1878E7
:102F80005B46012B23D0FFF707FC43460221EB18D9
:102F9000534430331A790A4301211A711A790A43CA
:102FA0001A714B46002B00D119E5586900F0DAF987
:102FB0004B4601215B690CAA38009847002000F0BD
:102FC000D1F93523EB5CDB0700D508E5BDE6FFF75B
:102FD00001FC43460221EB18534430331A798A43EB
:102FE00059461A711A798A431A71DAE7FFF758FCC1
:102FF000ABE600213800FFF71FFB3800FFF7B6FBF8
:1030000000229246164AAB780592164A04939346DC
:103010002A00124B5546984692461B780EE05B46B6
:103020001B686A019B18002B50D0DB68380098475A
:10303000434601351B78EDB2AB4233D39D42EED30C
:10304000059AEB1A5B01D318EFE70AAB9A1C38001C
:1030500001230CA9157000F02BF9C0E41C1B002003
:10306000D43F0010881300203C140020783F00104B
:10307000099A002A3AD0AB789A18D2B204E0013308
:10308000DBB20E71934231D04146C9180879FF284E
:10309000F5D04E46454600236B7001E64E46FFF7DD
:1030A000FDFB52E65546542200212800FEF798FF0A
:1030B0001022FF21281DFEF793FF28002022FF2168
:1030C0001430FEF78DFF049BAB7066E65546FAE7B9
:1030D000FFF7DEFB021E00D1E2E5D37891781B02F8
:1030E0000B4338000CA900F0E3F8EAE533002900AF
:1030F000069A089800F01EFC069BED185B461B78AC
:10310000B34200D37DE6C4E7FFF7C4FB021E00D143
:10311000C6E5380013780CA900F0CAF8D1E521897A
:10312000FDF740FC021EF4D1BAE5022B0FD0FFF7E9
:10313000B3FB021ED1D1B3E5FDF728FC021E00D17E
:10314000AEE5122338000CA900F0B2F8B9E5FDF79E
:1031500025FC021EC1D1A3E5F0B54F464646D64632
:10316000C0B50C0016001F0082B0002A3AD07023B0
:1031700098461D4B002599461C4B9A461AE04B4633
:103180001B78200001935346997800F099FB0028A2
:103190001CD021000198FFF76BFA002816D0A37805
:1031A000DA09012A19D00A9A01351370B54219DAE1
:1031B0002378E4186378052B08D1E3789B079B0FED
:1031C000BB4203D14246A3781A42D8D0002002B0B5
:1031D000E0BCBA46B146A846F0BD0B9A0135137063
:1031E000B542E5DB0120F2E7FC0F002028140020A7
:1031F0007F20074B10B51A680840CB0934334000D4
:10320000C018044B1100C01800F032FB10BDC046BE
:103210007C1400202814002070B57F24C80984463F
:103220000C400F4864000419644430342079C0070E
:1032300001D5002070BD0B48012500788446207917
:10324000284320716046FFF795FA0028F2D1012249
:103250002379934323712379033293432371E8E75E
:1032600028140020FC0F00207F22054B0A4052004A
:10327000C9099B185B1830331879C007C00F704715
:103280002814002070B5094C0600082220000D000B
:10329000FEF7ACFE00238021E360A3602B783000B2
:1032A000994300220023FFF7B7FF70BDCC13002025
:1032B000F0B5C646244C170080460822200000B511
:1032C0000D001E00FEF792FE0023A760E381EB795C
:1032D000AA791B0213431A1CB34200D9321C96B2BE
:1032E000A281002B0CD0002E15D0002F2AD0402E0A
:1032F0001AD8237896B27F2B1BD80021134A0EE0F0
:1033000080212B780022994340460023FFF784FF59
:1033100080BCB846F0BD7F2300222178994333005A
:103320004046FFF779FFF3E74022237896B27F2BE0
:10333000E3D9064C320039002000FEF757FE802109
:103340002200ECE70020E3E7CC1300208C130020E0
:1033500010B5142200210248FEF742FE10BDC046FF
:10336000CC130020014B18617047C046CC130020DD
:1033700010B5054C010008222000FEF737FE00239F
:10338000A360E36010BDC046CC13002070B5374C7D
:103390001D0023780600DA09C9098A4210D00020EE
:1033A000002D00D070BD21003000FFF753F92369D4
:1033B000002B03D022000321300098470120F1E7C1
:1033C0007F2B06D8A0680028ECD02A002849FEF7F9
:1033D0000DFEE289A1685219E38892B24919E2818F
:1033E000A160934214D03F2D12D9A389981A051CCD
:1033F00080B2402828D82078ADB27F2826D8002176
:103400009A4230D01A4A2B003000FFF705FFC9E777
:103410002369002B05D022000221300098470028A4
:1034200008D0802123780022994330000023FFF741
:10343000F3FEB7E700213000FFF7AEF9300080213E
:10344000FFF7AAF90120ADE74025D4E79A4207D05B
:10345000074C2A002000FEF7C9FD80212200D2E798
:1034600080210022CFE70022CDE7C046CC13002008
:103470008C1300207047C046012070477047C0463B
:103480007047C04642000C4B1218920010B59B18B2
:103490005C78FFF70BFA002801D1002010BDFFF780
:1034A0000DFA0028F9D1002CF7D02100FFF7DCFE3F
:1034B00001235840C0B2F1E710140020F0B5160007
:1034C00004000D00062283B0002B2BD019006B46A0
:1034D000981CFEF78BFD002C02D0002003B0F0BD3D
:1034E000134B002059781F00FFF782FE0028F4D00C
:1034F000002D0CD16B460F4A1E705D7003CB03C2CA
:1035000008230C4A79780020FFF786FEE6E7694633
:1035100009480822057411300E704C70FEF766FDE4
:103520000923EEE76B460021981CFEF759FDD2E710
:1035300010140020F0130020E013002010B50C221E
:1035400000210248FEF74CFD10BDC04610140020BB
:103550000120704710B50C2200210248FEF740FD03
:1035600010BDC04610140020F0B54B7906000D00C8
:1035700083B0032B0BD10879C400241A1234A4B2EF
:10358000944204D8194B1F005B78002B03D0002411
:10359000200003B0F0BD097869184B78212BF6D1D3
:1035A000B9600B780200C9187B1C0193BB1C009307
:1035B00030000323FFF7D0FD0028E8D0AB79012BC2
:1035C00001D1EB79FB700123BB71AB78B9783B700B
:1035D000BB68DA791B7A1B021343BB800029D7D062
:1035E00010233000024AFFF717FED1E71014002025
:1035F000001400201F23F0B514001278060083B0D9
:103600001340012B01D000200DE05E4B20791D00FE
:103610001B789842F7D1602318001040134204D160
:1036200001290BD0012003B0F0BD2028EBD1637835
:103630000B2BE8D8544A9B00D3589F466378062B3F
:10364000E1D1E378212B00D180E0222BDBD10020D7
:10365000FDF7A0F921000200AB883000FFF728FE3B
:10366000E0E7012910D00329DCD1A1780020A9715D
:10367000FFF700FFD6E70129D4D1E1780020E971F6
:10368000FFF7FAFE0028BED021003000FFF7FAFD58
:10369000C8E7012964D00329C4D1E079E278A3798D
:1036A000000212021843A178120A041C102800D943
:1036B0001024364BA4B2002907D0012805D9187868
:1036C000884202D1013C324BA4B200200094FDF7A5
:1036D000A7F9A7E70129A5D10123210030002D4A30
:1036E000FFF7E6FD9EE701299CD101232100300070
:1036F000294AFFF7DDFD95E7012900D092E7E3793C
:10370000A079E2781B0212020343A178120A181C66
:10371000102B00D9102080B200292ED0012B2CD9DB
:1037200001251A4B01381F00197080B20133009037
:103730000020FDF773F92B189BB2002B00D162E734
:103740003A0021003000FFF7B3FD6BE7AA68002ABA
:1037500000D158E7210030001378FFF7A9FD62E798
:10376000E379A2791B021343102B00D94BE7210008
:103770003000064AFFF79CFD54E7044B00251F006C
:10378000D5E7C04610140020F43F0010E0130020DD
:10379000E1130020161400201714002070B51E4CF1
:1037A0000500A078944682B06278884204D08A42AC
:1037B00018D0002002B070BD824213D062469BB286
:1037C000002A1AD1154A0093160013000021022284
:1037D0000020FDF725F9102332002800A178FFF71B
:1037E0001BFDE7E762469BB2002A0DD100201A00BC
:1037F0000B49FFF743FE0120DCE7084A02210020C5
:103800001600FFF73DFEE6E700200121044AFFF71E
:1038100037FE0120CEE7C04610140020001400201F
:10382000F013002000B5030083B0002910D0002061
:10383000012B07D80A78002A04D00C48C254012072
:10384000012A01D003B000BD1800FFF73FF8F9E7E7
:1038500001236A46002001A99380FFF737F800286A
:10386000F0D00122014B1A70ECE7C0461C14002076
:1038700070B5040023780800DB070E00DD0F002B75
:1038800016D123785B0701D5280070BD012149427C
:1038900000F08AF92378DB07DD0F002B0AD12378AB
:1038A0005B0708D40422237801251343237002E028
:1038B0000025E9E70025300000F09EF9E4E7C04666
:1038C000437902791B021343C2785B0592075B0DB3
:1038D000920F022A1AD0032A0BD00020012A07D106
:1038E00002394A425141104A891899424041C0B2B6
:1038F000704702394A1E91410C4A494211408022C8
:103900000020D200891899424041F1E7022904D0F1
:10391000002040229A424041EAE7054A9818434273
:103920005841C0B2E4E7C046FF03000040FCFFFF7F
:1039300000FEFFFF8446881830B51C00814206D285
:103940004A78052A04D00A7889188842F8D830BD08
:103950007F228B781A4052006244DB09D4540A78E3
:1039600089188842ECD8F2E770B5040000690D00B0
:10397000002803D00121494200F016F92389628909
:103980009C4698B291B2A388944532D3421A92B21F
:10399000002A27D0934208D298422FD3C01A81B26E
:1039A00061818B4203D8C91A89B28B42FBD9E28864
:1039B00023685204520C514328005918FEF716FB95
:1039C000618901254A1C92B2A38891420DD9002237
:1039D0005B00D21A20696281002801D000F00CF946
:1039E000280070BD0025628992B25B009A42F1DB2B
:1039F000EFE75A00521A821892B2C9E7C01881B292
:103A00006181CEE7F8B50400C0680F00002803D03C
:103A10000121494200F0C8F8258920896189A288DE
:103A2000ADB283B28EB2884228D39B1B9BB29A421E
:103A300009D8E679F60906D1E068002801D000F03F
:103A4000DBF83000F8BD2B0095421CD39B1A9BB2CB
:103A50009342FBD2E28820685204520C534339004F
:103A6000C018FEF7C3FA6B1C9BB2A2889D4216D900
:103A7000002352009B1A01262381DDE75100891B98
:103A80005B189BB2D3E7E28820685204520C534380
:103A90003900C018FEF7AAFA0135A288ABB252006D
:103AA0009342E8DBE6E7C04610B50400C068002892
:103AB00003D00121494200F077F82069002803D0A3
:103AC0000121494200F070F80023E06863812381FE
:103AD000002801D000F090F82069002801D000F003
:103AE0008BF8012010BDC04610B51920FCF7D6FF99
:103AF000D02380221B0692045A6210BD10B50248E2
:103B000000F004F810BDC046F41A002010B588B0CB
:103B100004000D2200216846FEF762FA0D22002102
:103B200004A8FEF75DFA6A464B236846137004A9A1
:103B300000230D2200F080F815210822200069449E
:103B4000FEF754FA08B010BD030084469B070BD063
:103B50000300032102E001330B4206D01A78002A49
:103B6000F9D16246981A7047030019680C4A0D484B
:103B70008A188A4302420FD15968094A04338A18C5
:103B80008A43024208D15968054A04338A188A4395
:103B90000242F1D000E001331A78002AFBD1E0E7BD
:103BA000FFFEFEFE8080808001B40248844601BC96
:103BB000604700BF9901002001B40248844601BC5F
:103BC000604700BFFD01002001B40248844601BCEB
:103BD000604700BFDD09002001B40248844601BCF3
:103BE000604700BF690A002001B40248844601BC56
:103BF000604700BFB509002001B40248844601BCFB
:103C0000604700BFD501002001B40248844601BCD2
:103C1000604700BF6501002001B40248844601BC32
:103C2000604700BF190A002001B40248844601BC65
:103C3000604700BFB90E002001B40248844601BCB1
:103C4000604700BF710D0020291B0010551B00109C
:103C5000391D0010D11F0010951D00103D1F0010D0
:103C6000611C0010711B0010911B0010A51B00109F
:103C7000A90F0010AD1B001055130010F11A001011
:083C80006D0C0010FD3A00106C
:103C8800000100020100010101020103020002011A
:103C9800020202030301030300FF0100010000FF09
:103CA800FF0000010001FF00006869006A6B6C6D8D
:103CB8006E6F70710072007304050607000102033D
:103CC800D03C001004FF000021622311001442A41C
:103CD800436F646578204D6963726F205265636F26
:103CE8006E737472756374696F6E0000436F6465F8
:103CF80078204D6963726F20576972656420526538
:103D080076204100434D2D57412D30303031000091
:103D18004D6163726F204B6579626F617264000058
:103D28000A2A2A2A2050414E4943202A2A2A0A00D0
:103D38004E6F207370696E6C6F636B732061726570
:103D480020617661696C61626C650000486172642B
:103D58007761726520616C61726D20256420616CE9
:103D6800726561647920636C61696D656400000047
:103D780048617264206173736572740052656C6582
:103D880061736500626F6F74325F773235713038F6
:103D980030000000322E332E300000007069636F4F
:103DA80000000000636F6465785F6D6963726F5F20
:103DB80077697265645F7265766100004A756C2088
:103DC80031372032303236004E6F2050494F207341
:103DD80074617465206D616368696E6573206172D2
:103DE8006520617661696C61626C6500556E686119
:103DF8006E646C65642049525120307825780A0039
:103E0800657020253032582077617320616C7265A7
:103E180061647920617661696C61626C650000009B
:103E280043616E277420636F6E74696E75652078C0
:103E3800666572206F6E20696E61637469766520AD
:103E480065702025303258004C45440009040000B4
:103E58000902220001010080320904000001030167
:103E68000104092111010001224100070581031005
:103E78000005000005010906A101050719E029E769
:103E880015002501950875018102950175088101C4
:103E98000508190129059505750191029501750314
:103EA8009101050719002AFF00150026FF00950655
:103EB80075088100C00000001201000200000040E7
:103EC800FECA204000010102030100000600525012
:103ED800D3F07542843D001006005250E182887F7D
:103EE8008C3D001006005250ABB360539C3D00104F
:103EF80006005250BBFF3CB6A43D001006005250CD
:103F0800861C0302AC3D0010060052505422A29DAC
:103F1800C43D001005005250DE65F468984F00104B
:103F28000D0A0000DE290010402B0010C02B0010E5
:103F3800182B00102A2B0010082B00107C2A0010C8
:103F48002C2A0010202A0010CE2E0010B42E0010AB
:103F5800A02C0010EE2E0010A02C00109C2E00109B
:103F6800882E0010A02C0010742E0010882D001030
:103F7800A02C0010383100102A3100101E3100101A
:103F8800A02C0010A02C0010083100102A310010BD
:103F9800A02C0010A02C0010A02C0010A02C0010A9
:103FA800A02C0010A02C0010A02C0010D030001065
:103FB800340B0020340B00207E0B00209E0B0020C9
:103FC800DE0B0020F00B00202C0B0020000000006E
:103FD8003D35001051350010553500106935001079
:103FE800F53500109D37001000000000063600105F
:103FF800F8360010E6360010D436001006360010E9
:104008000636001006360010063600100636001078
:1040180092360010763600106236001009005250B1
:0840280000000002503E0010F0
:10403000D43E0010E03E0010EC3E0010F83E0010B0
:10404000043F0010103F00101C3F001024400010DF
:1040500003000068EFF3108C72B60268002AFCD0EF
:10406000BFF35F8F04229A56002A0BDB002900D091
:104070000A6000201B68BFF35F8F00221A608CF378
:1040800010887047D0221206126801201A71F1E7D9
:10409000F0B51F00D023C6461B061B68040016009F
:1040A0009846002500B50AE0BFF35F8F156081F3E5
:1040B00010883000390000F0FBFE002818D122687B
:1040C000EFF3108172B61368002BFCD0BFF35F8F43
:1040D000237922687F2BE7D943462371BFF35F8F93
:1040E0000023136081F31088012080BCB846F0BD26
:1040F0000020FAE770B582B001A9060014001D0087
:10410000FFF7A6FF002807D1D0221206019B1278E4
:104110005BB252B2934201D102B070BD22002B00BB
:104120003000FFF7B5FFF7E7F8B50E00070000F025
:1041300097FEFA2204000D000023920030000021B7
:1041400000F086FE22002B0012184B41002B02DAF1
:104150000122034B52423800FFF79AFFF8BDC046D8
:10416000FFFFFF7F0268EFF3108172B61368002B28
:10417000FCD0BFF35F8FFF2303710368BFF35F8F32
:1041800000221A6081F3108840BF70470022154B4F
:1041900010B59A60DA601A615A619A61DA611A623E
:1041A0005A629A62DA621A635A639A63DA631A6429
:1041B0005A649A64DA641A655A659A65DA651A6609
:1041C0005A669A66DA661A675A679A67DA67F03249
:1041D00092000021044800F05BFE044B044A1A6080
:1041E00010BDC046000010500C170020E01A00203F
:1041F00080011050F0B54746CE4680B51C4B0024D8
:104200009F6D012685B0002F1BD01A4B98461A4B84
:10421000994604E00134E4B27600202C11D03E42ED
:10422000F8D043469E65012365086D00A343ED1851
:104230006D014D44280000F013FC002806D1B7435F
:10424000E8D105B0C0BCB946B046F0BDEB8AE0216C
:104250000393002301A8AA78C900018001210271FB
:10426000437100F01DFC280000F098FBE7E7C04612
:104270000000115000301150CC1600209823C64A7F
:10428000F0B5D55880232E009B02102485B01E4027
:104290001D4274D0C14BC24C9A6AC24B00261A60B0
:1042A0003B23E35C022B00D14BE17B23E35C022B3D
:1042B00000D1EFE0BB23E35C022B00D1F6E0FB234F
:1042C000E35C022B00D1FDE03C23FF33E35C022BD7
:1042D00000D129E17C23FF33E35C022B00D10AE10A
:1042E000BC23FF33E35C022B00D13BE1FC23FF3313
:1042F000E35C022B00D1F1E0AB4BE35C022B00D17D
:1043000070E1AA4BE35C022B00D101E1A84BE35C16
:10431000022B00D171E1A74BE35C022B00D12EE10F
:10432000A54BE35C022B00D19CE1A44BE35C022B88
:1043300000D16DE1A24BE35C022B00D19DE1A14BCA
:10434000E35C022B00D17BE1002E08D19E4B1B7851
:10435000002B04D180219D4A90338902D150C02284
:1043600069468D4B92009B6C80265B058A805B0DB5
:10437000012101A8029300F093FB954CB602EB06D5
:1043800000D57BE080235B021D422FD00224844FA6
:104390001E43BB7E002B14D000F092FD012800D9F3
:1043A00070E0C02200213800920100F0FDFA3800D0
:1043B00000F0F4FA00F084FD012802D9834B5C661A
:1043C0001C660123FB702037012C20D1C0236A46D4
:1043D000DB0093807F4A02AB03CA03C3012101A81B
:1043E00000F05EFB8022794B92021A6580235B010C
:1043F0001D420ED18023DB011D4221D180231B02EF
:104400001D422DD1AE4200D0BEE105B0F0BD012469
:10441000BFE700241E43604B1C60FFF7B7FE8023FC
:104420006A465B0093801472012101A800F038FBFA
:104430008022664B12031A658023DB011D42DDD00A
:104440001E4380236A46DB009380012101A800F00F
:1044500027FB10225D4B1A6580231B021D42D1D021
:104460001E43A0236A46DB009380012101A800F0CF
:1044700017FB8022554B12011A65C3E7FFF7BAFEFE
:1044800026007FE7544B444A1C66536E2340A342E8
:10449000FBD186E77833E75C002F00D10AE70233CF
:1044A000E25C002A00D00DE13E0003E7B833E75C90
:1044B000002F00D103E70233E25C002A00D0F9E0CC
:1044C0003E00FCE6F833E75C002F00D1FCE6023347
:1044D000E25C002A00D041E13E00F5E6F933FF330B
:1044E000E75C002F00D107E70233E25C002A00D02E
:1044F0002BE13E0000E77933FF33E75C002F00D16A
:10450000EEE60233E25C002A00D015E13E00E7E669
:10451000324BE75C002F00D1F8E60233E25C002A60
:1045200000D001E13E00F1E63933FF33E75C002FB4
:1045300000D1CFE60233E25C002A00D0EBE03E007F
:10454000C8E63833E65C002E00D1AEE60233E25C0A
:10455000002A00D1A9E6200000222030E25400F019
:104560004BFAA2E6B933FF33E75C002F00D1BDE67A
:104570000233E25C002A00D0C4E03E00B6E6184BED
:10458000E75C002F00D1CBE60233E25C002A00D0CA
:10459000B0E03E00C4E6C0460000115000400540B7
:1045A000CC160020C41600203B0200007B02000055
:1045B000BB020000FB0200003B0300007B03000085
:1045C000BB030000FB0300001D1B00200030115046
:1045D0001000020000001050002011507A0200006C
:1045E000FA0200006B4BE75C002F00D189E6023332
:1045F000E25C002A76D13E0083E6674BE75C002F41
:1046000000D188E60233E25C002A63D13E0082E6F4
:10461000624BE75C002F00D18CE60233E25C002A9B
:1046200000D0A3E05E4BE35C022B30D15D4BE35C3A
:10463000002B27D15C4BE35C022B00D08FE63E00C1
:104640005A4BE35C002B00D17EE6FF239B00E25C2B
:10465000002A00D183E60022E2541C3BE01800F05F
:10466000CBF97CE6524BE75C002F00D15DE60233CC
:10467000E25C002A16D13E0057E64A4BE35C002B71
:1046800000D15CE6EF239B00E25C002A75D1464B2B
:10469000E35C022B00D062E6444BE35C002B00D1CC
:1046A0005DE6D2E70022E2541C3BE01800F0A4F9DA
:1046B0003E003AE620000022A030E2543E0000F026
:1046C0009BF9FCE5200000226030E2543E0000F03F
:1046D00093F9EFE50022E2541C3BE01800F08CF95E
:1046E0003E0018E60022E2541C3BE01800F084F97A
:1046F0003E0006E60022E2541C3BE01800F07CF984
:104700003E000DE620000022A130FF30E2543E00C2
:1047100000F072F9EAE5200000222130FF30E25477
:104720003E0000F069F9D5E50022E2541C3BE01898
:1047300000F062F93E00E9E5200000226130FF3020
:10474000E2543E0000F058F9CAE520000022E130B2
:10475000FF30E2543E0000F04FF9CDE5200000228A
:10476000E030E2543E0000F047F9ADE50022E254AB
:104770001C3BE01800F040F954E70022E2541C3BD7
:10478000E01800F039F982E731000A48694000F08A
:1047900077FBC0463A020000BA0200007A0300002C
:1047A000BB030000BA030000FB030000FA03000093
:1047B0003A030000F43D0010F0B58C46838A018B6B
:1047C000020083B00E1C994200D91E1CB6B29B1B7E
:1047D0009CB2D37880211800451EA841C9003143FE
:1047E0004003084301214B40D37053789482002B3F
:1047F00032D11169002E2AD06346D4689B01E41897
:10480000731E0193062B32D923000B439B072ED135
:10481000631A013B022B2AD90023B708BF00CD58E9
:10482000E5500433BB42FAD19E420ED0019DE418FC
:10483000EF1ACD18C95C21700199994205D06B78A7
:104840006370012F01D0AB78A3701169948A802323
:1048500089191B0211611843002C02D18023DB014E
:1048600018436346002B00D0000403B0F0BD0023C2
:10487000CD5CE55401339E42FAD1E6E78368F0B59A
:104880001A68002900D0120C43789205950D002B70
:1048900009D1C38AEB18C382038BAB4201D9002331
:1048A00083822800F0BD0469002D28D0C3688901E7
:1048B0006F1EBC465E18062F27D901315B18E31A1C
:1048C000022B22D9230033439B071ED10023120E53
:1048D0009200F158E15004339A42FAD195420DD03A
:1048E00063469F1AA318B45CB1181C70944505D098
:1048F0004A785A70012F01D08A789A700469C38A65
:104900006419EB18C3820461C6E70022B35CA354A8
:1049100001329542FAD10469F1E7C04610B50400AE
:10492000836800211B68FFF7A9FF63681B685B00B1
:1049300002D5238B834200D010BD01212000FFF758
:104940009DFFF9E7084B1A6C0023920703D4827885
:10495000D209012A01D018007047C37E023B5A4297
:104960005341DBB2F7E7C0460000115010B5FFF726
:10497000E9FF00280AD0064B064A9B6A06491268DE
:104980005B189B1A0020C6229A42404110BDC046C7
:1049900000400540C4160020E0FCFFFF00238376A2
:1049A000436103617047C04610B58368002901D098
:1049B0001C682140002A12D08024E40011432242C6
:1049C0000DD01A6822420CD1084A0A401A60084ADF
:1049D000126C920703D40C23033BFDD28368196049
:1049E00010BD8178034800F04BFAC046FFFBFFFF83
:1049F00000001150083E0010436870B5002180256A
:104A000004001E68FFF7D8FE124B6D011A6C0543B7
:104A1000A37892070ED55B060ED00F4B1E40802365
:104A20009B05334362680021136020002A00FFF7D2
:104A3000BBFF70BDDB09F0D0A38A002BEDD00121B4
:104A40002000FFF7B9FEA023044ADB0532400543EE
:104A50001343E7E700001150FFFFFFAFFFFFFFDF49
:104A600070B5857E0400002D14D0FFF757FFA38A90
:104A7000002B01D1280070BD2000FFF777FF002830
:104A800003D0012300252377F4E72000FFF7B4FFCC
:104A90000025EFE78178014800F0F2F9283E001088
:104AA000F0B54746CE4680B5437805000F0085B087
:104AB000062B07D8684A9B00D3589F46674A13784D
:104AC00001331370664B1C686269EFF3108172B694
:104AD0001368002BFCD0BFF35F8FA1612000290079
:104AE00000F0DEF96269A369BFF35F8F00211160F6
:104AF00083F31088002804D105B0C0BCB946B04685
:104B0000F0BD3A006978287800F0B2F9F4E70121A5
:104B1000544B1A788A431A701A7801318A431A70F2
:104B200000225A701A7802318A431A70CAE74E4B33
:104B300000241E001A784D4B98464D4B994610E0C4
:104B40004B461B6861015B18002B06D0DB69002B0C
:104B500003D069682878984732780134E4B29442E7
:104B600017D8A242ECD8A31A5B014344EEE73D4BB1
:104B70001A78D207C0D504211A780A431A70A1E71F
:104B8000384B1A78D207B7D504211A788A431A709D
:104B900098E7344A1378904611005B0728D51378BC
:104BA000042201AC93430B7020000021083200F076
:104BB0006FF92B78237005236370294B1B6818004D
:104BC0005A69EFF3108172B61368002BFCD0BFF363
:104BD0005F8F06008161210000F062F97269B3699C
:104BE000BFF35F8F0021116083F3108800282CD160
:104BF0004346DB78DB0700D47EE72B7801AC2370DB
:104C0000032363706B686360154B1D686A69EFF37B
:104C1000108172B61368002BFCD0BFF35F8FA961BF
:104C20002800210000F03CF96A69AB69BFF35F8F8F
:104C30000021116083F31088002800D15CE73A005E
:104C40006178207800F014F956E73A00617820780E
:104C500000F00EF9CCE7C046B83F00101E1B002044
:104C600080140020281400201C1B0020D43F0010BA
:104C700088130020084B9C461B78002B0BD1802307
:104C8000064807495B051A68C25004338B42FAD1C3
:104C900001236246137070471F1B00204C15001043
:104CA0000001001010B5014B984710BD4D150020B4
:104CB000084B5A6842609A688260DA68C2601A6972
:104CC00002615A6942619B698361A0235B051B688D
:104CD00003607047000002404268084B5A608268D7
:104CE0009A60C268DA6002691A6142695A6182692F
:104CF0009A61A02302685B051A60704700000240B9
:104D0000F0B5D6464F4646460023C0B5182788B0B2
:104D10001E0081460D00988A46493B88140098473A
:104D20003B8880464449B08A98470023434906009F
:104D3000988A3B8898478246FFF79CFF01A8FFF7B7
:104D4000B7FFC047B0473E4B21001A6880239B0045
:104D50005340C022920013403A4A1360002C1CD0EA
:104D60000823C0209C464005163F6246836A1A40CD
:104D70001F4239D0631A00292BD1002A0BD1002CF5
:104D80000BD0C023082202265B059B6A1A401E42F4
:104D900042D0002AF5D0002C30D1294B1A68C0230C
:104DA0009B009343274A1360D047FFF77BFF01A87E
:104DB000FFF792FF08B0E0BCBA46B146A846F0BD86
:104DC000002C2BD1C0225205966A08223240B60729
:104DD0002BD50D2B19D9002AF2D1C0225205966A83
:104DE00008223240B607F4D4002A04D10B00234332
:104DF000002BBAD1D1E70B00002CF9D0036E013C97
:104E00002B70230001350B43F2E74B461B78013929
:104E1000036601239944E7E70021E5E7C0235B052A
:104E20001B6E013C2B7001359FE70B00A242DFD1C6
:104E3000DCE7C046494600004558000046430000F4
:104E40000C8001400C9001407047C04600000000FB
:104E500001B40248844601BC604700BF651E0010D3
:104E600001B40248844601BC604700BF9917001096
:104E700001B40248844601BC604700BF8928001085
:104E800001B40248844601BC604700BFE50A001037
:104E900001B40248844601BC604700BFE11F001016
:104EA00001B40248844601BC604700BF053A0010C7
:104EB00001B40248844601BC604700BF4916001097
:104EC00001B40248844601BC604700BFD90A001003
:104ED000543E0010D83C0010F43C00100C3D001073
:104EE000183D00101000000000000000000001004C
:104EF00000000000000000000000020000000000B0
:104F0000000000000000030000000000000000009E
:104F10000000FF000000000001B5486801318E4626
:104F20000047704609380149884701BDE50E001069
:104F3000FFFFFFFFFFFFFF7F0000000000000000F9
:104F40000000000000000000000000000810002029
:104F5000503300004C330000543300005233000043
:104F60004D5300004D430000533400004334000013
:104F70008414002010000C0000000000000000005D
:104F8000000000000000000000000000FF00000022
:084F9000000000000000000019
:04000005100001E9FD
:00000001FF
