:020000040800F2
:1000000000400020592E0008A92E00089524000861
:1000100000000000000000000000000000000000E0
:10002000000000000000000000000000A92E0008F1
:100030000000000000000000A92E00088124000834
:10004000A92E0008A92E0008A92E0008A92E000834
:10005000A92E0008A92E0008A92E0008A92E000824
:10006000A92E0008A92E0008A92E0008A92E000814
:10007000A92E0008A92E0008A92E0008A92E000804
:10008000A92E0008A92E0008A92E0008A92E0008F4
:10009000A92E0008A92E0008A92E0008A92E0008E4
:1000A000A92E0008A92E0008A92E0008A92E0008D4
:1000B000A92E0008A92E0008A92E0008FD2200087C
:1000C00002B4714649084900095649008E4402BCF1
:1000D0007047C04602B4714649084900095C4900AE
:1000E0008E4402BC7047C04603B4714649084000C4
:1000F0004900095E49008E4403BC704703B4714651
:10010000490840004900095A49008E4403BC704721
:10011000002243088B4274D303098B425FD3030A46
:100120008B4244D3030B8B4228D3030C8B420DD359
:10013000FF22090212BA030C8B4202D312120902E7
:1001400065D0030B8B4219D300E0090AC30B8B4225
:1001500001D3CB03C01A5241830B8B4201D38B03D3
:10016000C01A5241430B8B4201D34B03C01A524178
:10017000030B8B4201D30B03C01A5241C30A8B42BB
:1001800001D3CB02C01A5241830A8B4201D38B02A6
:10019000C01A5241430A8B4201D34B02C01A52414A
:1001A000030A8B4201D30B02C01A5241CDD2C309BC
:1001B0008B4201D3CB01C01A524183098B4201D338
:1001C0008B01C01A524143098B4201D34B01C01A23
:1001D000524103098B4201D30B01C01A5241C3089B
:1001E0008B4201D3CB00C01A524183088B4201D30A
:1001F0008B00C01A524143088B4201D34B00C01AF6
:100200005241411A00D20146524110467047FFE761
:1002100001B5002000F006F802BDC0460029F7D065
:1002200076E770477047C0460023C25C0133002A5E
:10023000FBD1581E70470000802330B55B0185B0AC
:100240000293042301A901900A48039300F06AFD78
:10025000084800F077FC0221064800F0DBFC054866
:1002600000F04CFD0500034800F0A6FCA8B205B064
:1002700030BDC0462400002010B586B00393002492
:100280000323019101A905940292049303F00AFB50
:1002900006B010BDF0B500258FB002F035F8674C00
:1002A0000023A18820681A000135FFF7E5FF083414
:1002B000042DF5D10026624CA1882068012300227C
:1002C0000136FFF7D9FF0834042EF5D101230022AF
:1002D00031005C48FFF7D0FF8021012300225948FC
:1002E000C900FFF7C9FF80210123002255480901F9
:1002F000FFF7C2FF80210223002252484901FFF785
:10030000BBFF8021002301224E488901FFF7B4FF83
:10031000802100224B48890103F010FC310049483C
:1003200003F0FAFB80214400C900464803F0F4FBC7
:10033000454B20430C22187000210BA803F018FC39
:100340009020032309A9C00509930A9303F0AAFA90
:1003500080213E4B89009A693D4C0A439A619B6912
:1003600000250B400793079B3A4B01272360C223CC
:10037000FF33E3612000631DDD776560A560E56004
:1003800027616661A5612562A76200F09BFA2000E3
:1003900000F090FD06AB190028001F8000F0EEFD74
:1003A00002F07CF80495029501200021404201F002
:1003B000DBFA02F0ABFD029A0390831A00D5F7E056
:1003C00000261E4D2C68002301222000A988FFF77B
:1003D00053FF00222000A98803F0B0FB00230893FC
:1003E000089B272B14D91C4B1C4C05939B1902937B
:1003F0000023134F34190193B988386803F08CFB3C
:100400002378002808D0002B0ED10022029B12E096
:10041000C046089B0133E2E7042B02D80133DBB26C
:100420002370052B1ED104E0013BDBB22370052BAA
:1004300016D10122029B1A7014E0C046343C000819
:10044000143C000800040048650000200010024031
:1004500024000020002401407600002066000020D7
:10046000002BD2D0019B083701330193029B01344A
:1004700001330293019B042BBED10023A988286875
:100480001A000436FFF7F8FE0835102E9AD1039BA8
:10049000019901337A48029303F03EFB8021440026
:1004A000C900774803F038FB2043764CC0B223786C
:1004B000754A76499B000343CB5C117820705B182A
:1004C0000020137001F054FD002871D009AD062200
:1004D0000021280003F04CFB00231C006C4E00227E
:1004E0000599CF1899190191B95C002908D0019993
:1004F000895C002904D0052C02D8601C2955C4B29F
:100500000132042AF0D19B18102BE8D180215C48DD
:10051000090103F001FB002808D1052C06D8582258
:1005200006A90C30631C09180A55DCB28021544816
:10053000490103F0F1FA012808D1052C06D845221B
:10054000231806A90B3009180A55DCB20020FFF762
:1005500073FE05000120FFF76FFEE1239B009D4223
:100560006CD2052C05D85022631C06A90C310A5503
:10057000DCB2E1239B00984269D2052C05D85122B8
:10058000631C06A90C310A55DCB200233E4AD3563F
:10059000032B65DD052C03D84B2306A90C310B5525
:1005A00000231370002209AB1100100001F03AFD86
:1005B000039B049A9B1A00D5F6E672B680250022AA
:1005C0003449AD010B2A51D80878334B4C78800060
:1005D0001B181B5D002B50D1053393429B412F48C4
:1005E00003402F481B18172001261F00C7403C005E
:1005F0003440A446224CA5610624374200D00B3477
:10060000013CC046002CFBD167461D4CA56212245C
:10061000002F00D00B3C013CC046002CFBD1013820
:10062000E3D20132D2B20231182ACBD1039B143368
:10063000049362B6012002F06FFCB5E6C8231B01EB
:100640009D4296D9052C94D84F22631C8DE7C82370
:100650001B01984299D9052C97D85222631C90E728
:1006600003339FDA4E23052C97D999E7142393423D
:100670009B410C4803400C48B4E782235B02B2E77D
:10068000000400486500002064000020F43B0008DE
:10069000043C0008DC3B0008760000200201FEFF5D
:1006A0000001040004FFFDFF000103000048704743
:1006B0001940000800487047D83F000800487047BC
:1006C000B63F0008030010B500280CD1124B134AA6
:1006D0005A800123C0220133DBB20F485B00920035
:1006E0001343038010BD0020042BFBD80C4A9B0051
:1006F0009C582000FFF798FD031CC0B21F2800D9AA
:100700001F232000DBB2044AE1188842E2D00478BB
:10071000023201301480F8E786000020090400004E
:10072000A03F0008002070477047000070B51A4BCA
:10073000026804009A4203D01848194901F0ACFE3F
:10074000042223689968114201D1002070BD996884
:10075000114206D09A68920703D4102299680A437E
:100760009A6002F0D3FB0425060023689B682B42A5
:10077000EBD002F0CBFB801B0228F6D923689B68E4
:100780002B42F2D010230120A26B1343A363E36B2F
:100790000343E363DAE7C046002401409B3C0008C2
:1007A00017090000032170B5036804009A680A4025
:1007B000012A01D0002070BD1968114202D1DA6807
:1007C0001204F7D505229D681540012D1DD19968A9
:1007D000033A0A439A60032223681A6002F096FBE8
:1007E000060023689B682B42E4D002F08FFB801B3D
:1007F0000228F6D923689B682B42F2D01023A26B03
:100800001343A363E36B2B4306E01023A26B134354
:10081000A3630123E26B13430120E363CBE70000F2
:10082000002373B503210193036804009A680A400A
:10083000012A07D11968114201D0002076BDDA687B
:100840001204FAD499681B4A114209D01023A26BF2
:100850001343A3630123E26B13430120E363EDE73A
:10086000012299680A439A60134B14491868FFF7EC
:100870004FFC0190019B002B17D102F047FB012593
:10088000060023681B682B42D7D102F03FFB801B78
:100890000228F6D923681B682B42F2D11023A26BE1
:1008A0001343A363E36B2B43D7E7019B013B019306
:1008B000E0E7C046170000801800002040420F000B
:1008C0007047000070B5041E00D123E1954B02680B
:1008D0009A4204D09A219448FF3101F0DDFD63680B
:1008E000924A134208D080221206934204D0CD21AE
:1008F0008D48490001F0D0FDA268002A0AD0182ACC
:1009000003D88B4BD340DB0704D49C218648FF31AE
:1009100001F0C2FD2022E368934304D0CE21824837
:10092000490001F0B9FD2369013B012B04D99E2147
:100930007D48FF3101F0B0FDA37E012B04D9CF210A
:100940007948490001F0A8FDE37E012B04D9A021DC
:100950007548FF3101F0A0FD226A764B1A4204D09F
:10096000D0217148490001F097FDE369C0221900C8
:1009700091430CD080225200934208D0C222FF3211
:10098000934204D0A2216848FF3101F085FD651D26
:10099000EB7F012B04D9D1216348490001F07CFD94
:1009A00004226369043B934304D0A4215E48FF31D1
:1009B00001F072FDA36A012B04D9D2215A484900E3
:1009C00001F06AFD237E012B04D9A6215648FF3190
:1009D00001F062FD637E012B04D9D3215248490006
:1009E00001F05AFDA36B002B06D122003432E363E1
:1009F00020001370FFF764FFA36BDB0600D58BE0CC
:100A000023689A68520700D586E0A16B4A4A1140D4
:100A10000632FF320A430321A2639A680A40012A80
:100A200005D1196811420FD1DA6812040CD41821CB
:100A3000DA688A43A1680A43DA6022686168136948
:100A40009B009B080B43136122683C49D3680B4011
:100A5000D360237E617E9B03C9030B43A27EE168C2
:100A60000B4351030B43E97F49000B43A16A013952
:100A7000481E814109030B43216902394842414123
:100A800089000B43E17E012904D1002A30D1802264
:100A900052021343C221E269FF318A4202D0216A25
:100AA0000A4313432168CA681A43CA608021E26A74
:100AB00049058A4202D0013A062A0AD8072021684D
:100AC0004A6982434A612168E26A4D6902402A43C9
:100AD0004A6122681A49D2680A409A4210D100201D
:100AE0000323E063A26B9A43023B1343A36370BDED
:100AF0002022A06B0243A263E26B1143E163C9E7CA
:100B00001223A26B9A43023B1343A3630123E26BBC
:100B10001343E3630120EAE71023A26B1343A363AB
:100B2000F8E7C046002401409B3C0008FFFFFFBFE0
:100B300000010101FFF3FFFFFDFEFFFF1902FEFFB1
:100B4000E7FF3F8370B5184B026804009A4203D058
:100B50001648174901F0A0FC236802209B685B0738
:100B60001BD4250034352B78012B16D001232B7094
:100B7000637E012B12D1A26B0E4B00201A40802302
:100B80005B0013431C22A363E063287023681A6090
:100B90000423226891680B43936070BD2000FFF727
:100BA0003FFE0028E7D0F8E7002401409B3C000806
:100BB000FF030000FEF0FFFF70B5134B0268040056
:100BC0009A4204D088211148C90001F065FC260032
:100BD000343633780220012B09D0012520003570EE
:100BE000FFF7A4FD002803D001200023337070BD5F
:100BF0002000FFF7D7FD0028F6D1A36B044A13406D
:100C00001D43A563F1E7C046002401409B3C00085A
:100C1000FEFEFFFFF8B5354B026804000E009A4255
:100C200003D03348334901F037FC6569082D0DD0F6
:100C3000012023680C25DB68034207D02023A26B28
:100C400034341343636000232370F8BD02F05EF96F
:100C5000070023681A68154222D08022A16B9200F7
:100C60000A43A263C022D9681201114213D1A27EA5
:100C7000002A10D11A6812070DD59A68520727D496
:100C80000C215A688A435A60A26B1B4B1A400433EA
:100C9000FF331343A363237E002B22D00020D4E72D
:100CA000721CD7D0002E0DD12A0023681B681A4071
:100CB0001D42CED10423A16B34340B436360032067
:100CC0002270C2E702F022F9C01BB042ECD8C0E7A4
:100CD0002023A26B1343A3630123E26B1343E3635B
:100CE000D9E70C2223681A60D8E7C04600240140E7
:100CF0009B3C000877040000FEFEFFFF10B5064B8A
:100D0000026804009A4203D00448054901F0C4FB7C
:100D10002368186C10BDC046002401409B3C0008AD
:100D200074060000002373B501930268534B05005D
:100D30000E009A4203D05248524901F0ADFB33688D
:100D4000122B03D94E48504901F0A6FB73684F4A55
:100D50009B18012B03D94A484D4901F09DFBEB6AD2
:100D6000072B0BD8002B0DD1B368072B35D8002BE0
:100D700008D14348474901F08FFB03E08022520528
:100D80009342F1D12C00343423780220012B35D04A
:100D9000013820702B689A6852076AD432687168EB
:100DA00090403D4A91424BD09A6A10439862EB6A58
:100DB000072B17D8002B19D107222B68B068596967
:100DC0001140884212D05969914359612968B3682A
:100DD0004869134003434B6108E080225205934267
:100DE000D0D0C6E7802252059342E5D13268130085
:100DF000103B022B03D900200023237076BD274926
:100E00000B68102A16D0112A17D18022D20313435F
:100E10000B603368102BEED1214B22491868FFF785
:100E200077F90A2343430193019B002BE3D0019BF5
:100E3000013BF8E780221204E9E780225204E6E74A
:100E40009A6A82439A6232681300103B022BD2D80E
:100E500012490868102A0AD0113A531E9A41534287
:100E6000114A1340114A9B1803400B60C3E7104B13
:100E7000FAE72023AA6B1343AB63BDE700240140CC
:100E80009B3C00086C0700006D07000000F0FFFFAE
:100E90006E070000720700000110000008270140E3
:100EA0001800002040420F00000040FFFFFFBFFF7E
:100EB000FFFF7FFFF8B52E4B026804009A4203D073
:100EC00066212C4801F0E8FA2600343633780220F7
:100ED000012B46D001230321337023689A680A400E
:100EE000012A05D1196811423CD1DA68120439D4BB
:100EF000A16B214A11400632FF320A430321A2634B
:100F0000DD68DA688A43DA60802322681B0691680C
:100F10000B43936001F0FAFF070023689A68002AE8
:100F20000DDB0321DA680D401543DD60012300204D
:100F3000A26B8A431343A3630023337011E001F0D3
:100F4000E5FFC01B0228E8D923689B68002BE4DA80
:100F50001223A26B01209A43023B1343A363002395
:100F60003370F8BD2023A26B01201343A363E3E792
:100F7000002401401A3D0008FDFEFFFF002310B5CC
:100F800001280AD80A789A4207D0054B1A5401233F
:100F90009A4202D100F076FA0300180010BDC04654
:100FA000C600002010B5017805220C000300144093
:100FB0000020114208D119782000114204D10120EB
:100FC0001978013A0A431A7010BDF0B505AD10CD7D
:100FD0002E88A619B4421CD225786519AE4218D3C2
:100FE0006578052D09D10F25A7783D406D00FF09D3
:100FF0004D19E85525786419ECE7042DFAD1E57808
:10100000002DF7D1A7789F4201D2D055F2E72800F2
:10101000F0BD0120FCE78A1892B24000914201D84D
:10102000824201DB121A92B2100070470023438102
:101030000381704737B504000220002B00D01878D8
:101040008D1806E04B780A781B0213432380091899
:1010500002346A1A92B29042F4D9002A07D00023CF
:1010600001AD2800019302F0AFFD2B88238037BD2E
:1010700037B504000225002B00D01D780800891820
:1010800005E02388023403701B0A437040190A1AD2
:1010900092B29542F5D9002A04D0238801A90B8089
:1010A00002F092FD37BDF0B5070089B00D000EA922
:1010B0000888B9881C1AA4B2834202DA4E00A41927
:1010C000A4B2002C21D0A14205D2994220D85B1AAB
:1010D0000C0098B27881231C944200D9131C9CB256
:1010E000814217D90E1A611A41188BB201933B68DD
:1010F000B6B21B1802930F9B002B5DD0B4420CD8E4
:10110000220028000299FFF795FF200009B0F0BDEA
:10111000CB18DDE7401A80B2E2E70F9B28001B786E
:10112000029904935B4233400593059A0F9BFFF7A6
:1011300081FF059BEB180393049B5A1E3240D2B2E9
:10114000002A37D09B1A01991E1C9BB28B4201D9F1
:101150006B469E88F3B204930023029D059907A86D
:101160006D18E95C19540133D9B28A42F9D80023C9
:1011700007A98918049DD8B2A84216D3F6B20F9BCE
:1011800007A903989219FFF755FF039B39680233AB
:101190000393019B89199B1B9BB20193019B002B1D
:1011A000B3D00F9B019A0398ADE73868C05CC85470
:1011B0000133DFE73968F1E7B44205D8220028009F
:1011C000029902F001FDA0E732000299280002F026
:1011D000FBFC3968019AA819F3E737B504001D0034
:1011E000038940899BB2019500902000FFF75BFFC7
:1011F000050061892A00A08889B2FFF70CFF608191
:1012000028003EBDF0B58BB007000E00141E0393FE
:1012100037D003899BB2019341898379858889B24C
:10122000002B36D1019B8B422EDB591A89B2A94281
:1012300000D3B3E0691A0B1C89B2A14200D9231C68
:101240009CB2019BAB4245D2EA1A651B92B25D1972
:101250000492AAB202923A68D3180593039B002B1A
:1012600000D188E0049B9C4237D822003000039BC9
:101270000599FFF7FDFE2200B8880199FFF7CBFE24
:10128000388120000BB0F0BD6B00591A019B591832
:10129000CCE7AA420AD3039B002B01D1541B361979
:1012A0000024A542EDD02C000191CAE7019B6A0001
:1012B0008B420BDB5B1A9BB21B199342C1DB2A1BCF
:1012C000280092B2FFF7A7FE0190BAE70198531ADF
:1012D000C318F0E75B1B9BB2B4E7039B049A1D782D
:1012E00030006B421A400599039B0792FFF7C0FE3E
:1012F000079B049AF31806936B1E1A40D6B2002E71
:1013000037D0AD1B029A2B1CADB2954201D96B466A
:101310001B89DAB2DDB20492039B721909A90698FF
:10132000FFF7A6FE069B059A023306930023079952
:10133000521809A9C95CD1540133D9B2B142F8D3CA
:10134000002309AA9219049ED8B2396886420CD8A3
:10135000029B49195B1B9BB20293029B002B00D19D
:1013600089E7039B029A069883E7D05CC85401334F
:10137000E9E73968F1E7049B9C4205D82200310077
:10138000059802F021FC76E73100049A059802F0F6
:101390001BFC049B3868029AF118F2E7002470E7FE
:1013A0000020704770B506000024144B1A78531CB7
:1013B000DBB2A3420FD84C220021114802F0D8FB27
:1013C0001022FF210F4802F0D3FB1022FF210E480C
:1013D00002F0CEFB08E0A24207D924220B4B624365
:1013E0001B689B18002B03D170BDA242FCD1084B97
:1013F0003000DB6801349847E4B2D6E78C01002066
:10140000D8010020F30100200302002090010020F9
:101410002C40000810B5054A03001078002B02D0BC
:1014200001F074FC10BD01F099FCFBE714000020F2
:1014300010B5034A0B0011610121984710BDC04649
:10144000D801002070477047002070470020704787
:101450000020704770477047704770470023037043
:1014600018007047024B187E431E9841C0B2704767
:10147000D8010020024B987D431E9841C0B27047AE
:10148000D8010020F7B5234B050000931B7801918C
:10149000FF2B2AD1002901D10020FEBD00244C22BF
:1014A00000211D4802F064FB1C4B1D481C70FFF717
:1014B000BDFD1C4E1C4B1D4A30001A60FFF7CEFFCD
:1014C0001B4F33783860FF2BE6D03278531CDBB2E9
:1014D000A3420CD8009B280001991D7001F04CFC20
:1014E0000028D9D0280001F011FC0120D5E7A24244
:1014F0000CD9242262433B689B18002BCCD05B683C
:10150000002BC9D001349847E4B2DEE7A242C3D130
:10151000084BF4E714000020D8010020D40100207B
:10152000080000208C010020C800002000000020DE
:10153000900100202C400008F0B5040040780D0018
:10154000023887B005280AD8FEF7C4FD039E22287A
:10155000A1A600226D4B1A751A765A759A756C4BB6
:101560001E68002D02D12800336898473000002300
:101570002100B2880830FFF745FE0700002D02D198
:10158000012033689847002F72D0617820786CE092
:101590005E4B1A7D002A6BD00122DFE75B4B1A7D80
:1015A000002A65D00022D9E7B24263D93A00594BEC
:1015B00072431B689B18002B5FD10136F6B2564B65
:1015C0001A78531CDBB2B342EED8504B00939B7D8C
:1015D000002B27D00021009B03AE0C223000997510
:1015E00002F0C6FA2378337005237370484B1F68E6
:1015F000002D02D128003B689847380000233100B5
:10160000BA880830FFF7FEFD0190002D02D10120BD
:101610003B689847019B002B04D02A0071783078F2
:10162000FFF710FF009B9B7EDB0721D5237803AEDD
:1016300033700323737063687360354B1C68002D2F
:1016400002D1280023689847200000233100A28897
:101650000830FFF7D7FD0700002D02D101202368D5
:101660009847002F04D0717830782A00FFF7EAFEFF
:1016700007B0F0BDB242A0D1284B1B6A002B9CD012
:1016800020786168984798E70026242797E7244A3E
:1016900013780133137062E721790F230E001E4087
:1016A000194200D15BE7194A7600C80993191A4F0D
:1016B0001B182B331B783F78BB4221D2154F009764
:1016C00024277B43009F3F68FB18002B00D146E78F
:1016D000DF69002F00D142E79619361805203B3606
:1016E000327882433270DB6962791F002078A36808
:1016F000B8470028BCD105223378134333702EE756
:10170000BB4200D02BE7054BE2E7C046D8010020E2
:10171000C8000020900100208C0100202C4000080F
:10172000D4010020082210B514008B7800201C4042
:101730001A420AD14B790A791B02134320005B0538
:1017400003D0024B187801F0DFF910BD140000201F
:10175000F7B50C0016001F0000250190AE4201DC19
:10176000012003E06378052B01D00020FEBDE37863
:101770009B079B0FBB42F8D121000198FFF7D2FFD6
:101780000028F2D0A378DA09012A05D1099A13704A
:1017900023780135E418E1E7089AF8E70F2010B53F
:1017A0000840C909044B3B3140004018C0180021D3
:1017B000FFF7F8FB10BDC046D8010020F7B50F2495
:1017C00008A805780C400D486400CE090419A41936
:1017D00001263B34207830420DD1277808483E431B
:1017E00000782670009501F0F3F9031E04D105225C
:1017F00023789343237000231800FEBDD8010020F6
:101800001400002007B5064B8021DA88002A01D099
:101810001B789943002213000092FFF7CFFF0EBD03
:10182000D801002073B5164B06009C89D889221A6E
:10183000151C92B2402A00D940251A78ADB27F2AF1
:101840000ED9844218D099680E4CA14205D0081ECA
:1018500011D02A00200002F0B7F98021220004E014
:1018600000210A00844200D0064A00233000009381
:101870002B00FFF7A3FF76BD80210022F5E7C046CD
:10188000D80100209401002037B50D4C1100A26052
:10189000E288151C9A4200D91D1CABB2A581002A12
:1018A00008D0002B01D00B1E02D0FFF7BBFF0300B6
:1018B00018003EBD130080210092FFF77FFFF6E77E
:1018C000D80100200F22054B0A405200C9099B187D
:1018D0005B183B331878012318407047D80100206B
:1018E00010B5094B0C00187801F08EF90F22074B48
:1018F0002240520099180323E40909193B310A7860
:1019000013430B7010BDC04614000020D801002006
:10191000F8B50F250B4C0D406D00CE0963199B19CE
:101920003B331F78084B187801F0A0F90722BF0756
:1019300000D4043A6419A4193B34237893432370E8
:10194000F8BDC046D8010020140000200F22054B2E
:101950000A405200C9099B185B183B33187880076E
:10196000C00F7047D8010020F0B5B94B8BB01B7881
:10197000FF2B00D1B7E210230393B64B00201C6865
:1019800007AE23689847200000233100A288083062
:10199000FFF723FC2368050001209847002D00D1A4
:1019A000A1E27078013807280FD8FEF7A7FB0800DE
:1019B0001400C202A802B3021A002B02BB02307844
:1019C000FFF7F0FCA44B32795A76039B013B03935B
:1019D000002BD2D187E23078FFF7E4FCFFF73BFD24
:1019E000F3E79E4B1A78002AEFD01A78013A1A7062
:1019F0001A78D3B2002AE8D1974D01212A003B3250
:101A0000297513702A0028003C32137008AA347814
:101A1000C0CAC0C0AB60EB602B6160232E7833403E
:101A2000602B27D0402B08D18D4B2A0020002B6142
:101A3000FFF7B6FC0028C8D11CE0F206D20E012A3E
:101A400000D142E1022A00D180E1002A12D1202BEC
:101A500022D12A790F2A0DD82B79824AEB18DB7E06
:101A60001278934210D224227F495A430B689B1864
:101A7000002B0CD107AC0021207801F0C5F88021A3
:101A8000207801F0C1F8A0E79342F3D1774B596970
:101A90002000FFF7CDFCCDE7002BEBD168780928BB
:101AA000E8D8FEF721FB0701FF00E7FFF500E7FF9D
:101AB0000A009F00E7FF11001C002000A97801F038
:101AC0009BF801236B7580E70A2204ABD2182B7EAA
:101AD0001370012329002000FFF7D6FE75E7AE78CA
:101AE0002B7E9E4212D0002B0BD00021200000F054
:101AF0003DFE200001F012F96F7E2000FFF752FC3E
:101B00006F762E76002E06D1FFF7A5FC52492000F5
:101B1000FFF778FE59E7013EF0B2FEF7CFFD00284F
:101B200003D100224C4B1A76A4E74378022BF8D15C
:101B30000121C279EB7D92110A408B431343EB756F
:101B40000500C37882781B021343C3180935049338
:101B5000049BAB4204D92B78049AEB189A423CD2EE
:101B6000FFF778FCD2E7042ADBD10026049B5B1B3D
:101B70009BB205933B4B1A78531CDBB29E42D0D2EA
:101B8000B24223D92422384B72431B689B18002B86
:101B9000C7D0290020001B69059A9847070008282C
:101BA00018D9059B834215D3019010233000304A89
:101BB00030490095FFF709FA0028B2D0294BED19FA
:101BC0001B780133DBB29E42C2D3AAE7B242A8D14E
:101BD000264BDEE70136F6B2CCE76A780B2AC2D193
:101BE0001D00B5E76B881A0A501EDBB20E2800D91B
:101BF00040E7FEF779FA0F00240041003FFF3FFF66
:101C00004A0024003FFF3FFF3FFF3FFF3FFF3FFFF2
:101C10003FFF1A00FEF74AFD1223021E00D129E7FA
:101C200029002000FFF730FE04E7FFF70DFC021E3D
:101C300000D11FE7C37881781B020B43F0E718003F
:101C4000022A02D1FEF73AFDF1E7FFF701FCEEE7C9
:101C500014000020C8000020D8010020D40100207A
:101C6000A11300088C010020900100202C400008E6
:101C7000F3010020030200201800A988FEF722FDCE
:101C8000021E00D1F6E61378CAE7FFF7DFFBF7E79D
:101C90006B88012B00D0EDE6EA7DDB181343EB7572
:101CA000290034E76B88012B00D0E3E60222EB7DAC
:101CB0009343F4E70A2204ABD218EB7D76B213808B
:101CC000002E00DBD6E60223AAE72A790F2A00D9E4
:101CD000D0E62B799E4AEB18DB7E1278934227D20E
:101CE00024229C495A430B689B18002B00D1C1E663
:101CF00020005969FFF79CFB002800D065E62B788F
:101D0000602218001040134200D0B3E669782861C1
:101D10000A2912D00B2914D0002900D0AAE60A22E1
:101D200004A812185BB211808B4200DBA2E6CAE75E
:101D3000934200D09EE6884BDAE704ABCA181070D5
:101D4000C7E6AB78002B00D094E6A9E72A79D1B298
:101D5000120700D58EE60F220A4050002818CF093E
:101D60007B4DC0192B3000782D789446A8421ED2A6
:101D70002427784D47432D68ED19002B1DD1774F4F
:101D800002227B781800904301281BD0002B00D042
:101D900070E62000FFF7DAFD0A2204ABD21876B213
:101DA0001080002E00DB65E60223390039E7A842E7
:101DB00000D1C7E01D1EE2D05CE6002D00D159E63F
:101DC000696965E67888002800D053E6844500D12B
:101DD00050E6854200D14DE62000012B0FD1FFF7E0
:101DE00097FD20006969FFF723FB00233B613B005F
:101DF0003C331B78DB0700D5E7E5390087E6FFF7C2
:101E00006FFDEEE70F203179544C08404300CA09BA
:101E1000E3189B181D0005273B352A78BA432A7022
:101E2000002853D1E38835787B37B668834201D0E8
:101E300023789F43B9420FD1002E00D0C5E5210081
:101E4000280000F053FE2369B34200D1BDE5220013
:101E5000032128009847B8E523787F2B0FD8A06886
:101E6000002800D1B1E5A389E2899B1A9E4200D9DE
:101E70001E003B49884202D0320001F0A5FEA26854
:101E8000E3899219F318A260E2889BB2E3819A4237
:101E900001D03F2E16D82369002B07D1002239002C
:101EA000130028000092FFF789FC8EE50221220032
:101EB00028009847011EF1D1280000F0A5FE8021DE
:101EC0002800DEE52800FFF7ADFC7EE5204A2B3335
:101ED0001B781278934208D224221E485A43036882
:101EE0009B18002B04D10BB0F0BD9342FBD11A4BD1
:101EF00007AD9C696A792878099BA04765E5174B6F
:101F00001A7D002A00D160E5D87D8007C00FFFF759
:101F1000A3FA5AE5114B1B7D002B00D155E5FFF7C5
:101F20009CFA52E57368002B00D14EE5B0689847E3
:101F30004BE50A4B9B7EDB0700D446E57068FFF754
:101F400082FA42E5044D002B00D039E717E7C0467E
:101F50008C010020900100202C400008D8010020B6
:101F600094010020704701207047704770470000BF
:101F70000C2270B542430C4B9B185C78FFF772FA49
:101F80000500FFF777FA03000020854208D083425E
:101F900006D1844204D02100FFF794FC012358406D
:101FA0000123184070BDC04654020020F7B50F0051
:101FB00015001C00002801D00020FEBD154E7178D0
:101FC000FFF7ECFB0028F7D0002F17D0124B1F743F
:101FD000002C09D10134A4B20020717823000F4AEB
:101FE0000090FFF7EBFBE8E7002DE5D00F2CE3D8DE
:101FF000220029000A4801F0E7FDEBE7BC42EBD0E4
:10200000BD42D9D0102CD7D822002900034801F0B6
:10201000DBFDE1E75402002024020020340200200E
:102020003502002073B50E006C46190000232270A3
:10203000050006226370994209D0A01C01F0C4FD7E
:102040003100280008232200FFF7B0FF76BDA01C56
:1020500001F08EFDF4E701207047000010B50C225E
:102060000021024801F084FD10BDC046540200204A
:1020700010B50020FFF7F2FF10BD0000F7B54B7957
:1020800007000E00032B02D000242000FEBD0C79B7
:1020900007214C431234A4B29442F5D8174D6A7804
:1020A000002AF1D1317871184A78212AECD1A9603F
:1020B00008783279091812480190124800903800C7
:1020C000FFF746FB0028DFD0B379012B01D1F3796C
:1020D000EB700123AB71B378A9782B70AB68DA7918
:1020E0001B7A1B021343AB800029CED0002338009B
:1020F0000093054A1033FFF761FBC6E75402002046
:10210000550200205602002044020020F7B50B00C3
:102110001F211400127806001140012901D000206F
:10212000FEBD534D207929788842F8D160211000F6
:1021300008400A421BD1012B77D16378062BEED1E0
:10214000E378212B08D1AA68002AE8D021003000CA
:102150001378FFF799FBE3E7222BE0D1FEF7AAFA09
:102160000200AB8821003000FFF78EFB5DE02028E5
:10217000D5D1607801380A28D1D8FDF7A1FF0667CC
:102180006BD0D0D0D0D02E586F00012B4DD1E37939
:10219000A079E2781B0212020343A178120A181CEC
:1021A000102B00D91020334F0D00BC4680B20029FF
:1021B00008D00025012B05D92F4B01389C463970DA
:1021C00080B20135634600900020FEF7ABFA2B1871
:1021D0009BB23A00002BA2D0C4E7012B07D1E379D0
:1021E000A2791B021343234A102B98D8BAE7032B7A
:1021F0001BD1E278A379A178E479120224021C436E
:10220000120A201C102C00D910201A4B80B2002971
:1022100007D0012C05D91C788C4202D10138164B0D
:1022200080B200900020FEF77FFA012078E7012BB2
:10223000FBD1E1780020E971FFF795FE002800D17D
:102240006DE721003000FFF7DDFAEEE7012BECD15E
:102250000A4A87E70A4A012BE7D183E7012BF0D02E
:10226000032BE2D1A1780020A971FFF77BFEDCE708
:102270005402002024020020250200205B020020DE
:102280005A02002073B51A4C05001000A278667837
:102290008A4203D08E4203D0002076BD96420ED1F2
:1022A00014499BB2002804D11A00FFF75EFE0120FA
:1022B000F3E70A0000200121FFF758FEF7E70E4E72
:1022C0009BB200280ED10093022233000100FEF7DA
:1022D0002BFA0023A1783200009328001033FFF777
:1022E0006DFADAE7320002210020FFF73FFEF0E747
:1022F00054020020340200204402002010B50020C7
:1023000000F046FA10BD0000F0B59DB0102200218B
:1023100005A801F02DFC2C22002110A801F028FCBA
:10232000C0230124022520275B020FA819931794CC
:1023300018951B9407260F9700F04EFE0695002572
:10234000210005A805960795089501F05BF9802204
:10235000454C1205E36929001343E361E36909A8C9
:10236000134004930C22049B01F002FC80239B0584
:102370000A933E4B09A80C9322230E970D9301F06C
:102380001BFA802263699202134363616369FA2135
:10239000134080220093009B6369D2021343636160
:1023A00063698900134080220193019B63691203D2
:1023B000134363616369134080220293029B636944
:1023C0005203134363616369134080220393039BA9
:1023D0006369D20313436361636913400593059BEB
:1023E000234B1868FDF794FE802301385B04984264
:1023F0000BD2204A20495060C0200B6A00061B0205
:102400001B0A03430B62956016608023DB010325E2
:102410000F9301230FA9194810931193129501F0FE
:1024200041FA80231B0200260F9302230FA91348B1
:1024300011931096129501F035FAC02390205B019C
:102440000FA9C0050F9310961196129501F02AFA64
:102450008022E36912041343E361E36913400993A3
:10246000099B1DB0F0BDC046001002407FBB0000BC
:102470001800002010E000E000ED00E0000400483B
:1024800010B500F037FD024A13680133136010BD28
:102490006002002000BE7047704770477047000020
:1024A000F7B50F25C4090540A01C01900800604045
:1024B00000238446174A019ED8B2965D002E06D0AE
:1024C00056788E421FD11678AE421CD1FEBD01292E
:1024D00006D1104F9E00BE196644B678002E12D168
:1024E0001678FF2E01D0AE420DD15678FF2E08D1BE
:1024F000084A9B00D554D318012259701B199A70B1
:10250000E4E78E42F4D001330432082BD3D100200B
:10251000DCE7C0466702002007B56B46DA1D991D4F
:1025200000F068FC0300054A10881B189BB213805A
:102530008022D200934200D901480EBD64020020DF
:10254000FFFF00008022044B1206DA67BFF34F8FB3
:10255000BFF36F8F7047C04604E100E08022024B5A
:1025600012061A607047C04600E100E0F0B54289EB
:10257000038905009B1A80891C1C9BB289B0834289
:1025800000D9041C2E488B001B1804932D481B886F
:10259000002718430390C020C0000340029380230B
:1025A0000298A4B2DB00984202D1039B5F06FF0FA2
:1025B0004B0005932449DB199B005E5A8B196E680A
:1025C0000193002E34D00822002106A801F0D0FA91
:1025D000022306AA13703000130001992200FEF7AF
:1025E000FCFD6B89184AE3186B81059BA405DB1978
:1025F0009B009B185A88A40D920A92022243302411
:102600005A80039B029A5C408023DB009A4201D1EE
:102610000123EB730D4B1C40FFF794FF049B1C80C0
:10262000BFF34F8FBFF36F8FFFF798FF09B0F0BD77
:1026300029683300891801982200FEF7FBFCD0E7D7
:10264000005C00408080FFFF00600040BF8FFFFF04
:10265000F8B543001D4A5B181B01D3189D7B400150
:10266000012905D1103029008018FFF77FFFF8BD40
:10267000174BAE00F618338816491218164F19403A
:1026800014890F439189A2B28A4200D90C1CC0213F
:102690008022C900A4B2D2000B40934204D1220090
:1026A0000021280000F0B8FB2200C024A401012171
:1026B00028007C4000F0B0FBFFF744FF3480BFF3FC
:1026C0004F8FBFF36F8FFFF749FFD0E788020020DD
:1026D000005C00408FBFFFFF8080FFFFF8B5002443
:1026E000FF222500194E1A4B348001341A705A709B
:1026F0009D70DD700433082CF7D100214027154B65
:1027000008001F80FFF7CCFE00218020FFF7C8FEE5
:10271000114B38009F819D739F839D77FFF7FCFECF
:1027200005003800FFF7F8FE0C4B22009D800C4D91
:102730001880012100202F8800F06EFB094B1F40FC
:10274000094B7B402B8080233380F8BD4C5C0040DC
:102750006702002064020020880200200060004020
:10276000005C00407070FFFF20220000064B002933
:1027700005D08022D98F92000A43DA877047DA8F1A
:1027800002490A40F9E7C046025C0040FFFDFFFF36
:10279000F0B5C14E8FB0F38F02938023029A9B0055
:1027A0001A4212D0BD4AD28F1A420ED0C022BC4B60
:1027B00008A9F387BB4B92001B880BA85B058A8195
:1027C0005B0D01210C93FEF7B7FE029B5B050FD555
:1027D000B54BF387FFF782FF802308AA5B00938144
:1027E0000023012113740BA8FEF7A6FE0FB0F0BD65
:1027F000029BDB0412D50421A84B0BA8DA8F8A4375
:10280000DA87DA8F49188A43DA87A84B08AAF38750
:10281000A023DB0093810739FEF78EFE029B1B0588
:1028200012D508229D4B0BA8D98F0A43DA870422C0
:10283000D98F0A43DA879E4B08AAF3878023DB00EF
:1028400001219381FEF778FE029BDB050FD59949A4
:102850000B78012B07D110249048C28FA243C28766
:10286000013B0B7001E0002BFAD1934BF387F38F00
:102870001BB2002B05DB029B5B04B7D58F4BF387A4
:10288000B4E70F22F38F1A408D4B9700FF183B8857
:10289000019205936B4614229B5E002B2BDA80225B
:1028A000059B1201134263D0019B864ADB009A18F4
:1028B0001488854AA4059B181888844BA40D09AD7B
:1028C0002200C01829000023FEF7D2FB3B88804A73
:1028D0001340804A1343804A13403B80082C41D167
:1028E000C02308AADB0093810CAB06CD06C30121EF
:1028F0002800FEF721FE8022059B1342B7D03B88BB
:102900007349C0240B40754980250B430F21934325
:102910003B803B88E40019407148ED001C404A01AF
:10292000AC4213D18418E57F002DA0D00025E577B7
:1029300001245B06DB0F5C40019B5B001B19694CAB
:102940009B001B191C88A40AA4021C8083185C8BA2
:102950001B8BA34200D190E0103201998018FFF741
:1029600005FE84E708220121002000F055FAC2E7A5
:102970003B88574A1340574A1343574A13400F2284
:102980003B803D88534B2B431A40C023DB002B4038
:102990000693802306990392DB000122994202D11B
:1029A0006B04DB0F5A40019B5B009B184D4A9B0058
:1029B0009A181488454AA4059B5AA40D9B18039A9B
:1029C0000793474B5201991848680490002832D069
:1029D000082200210BA801F0CBF8022308AA1373E8
:1029E0000799220004980BABFEF70CFC039A3C4BB2
:1029F00052019B1859899A89611889B25981944268
:102A000002D31B8999421FD30198012100F004FAD7
:102A1000E0220025039B324C5B010BA8E418D20096
:102A200063890280039A0121027183604571FEF778
:102A300083FDA5605FE74889D15822000918049BEF
:102A40000798FEF715FBD1E78020069CC000844262
:102A50000AD05B1A191C9BB2934200D9111C8AB28E
:102A60000198012100F0D8F91F4B1A4A2B4013435B
:102A7000C022920153403B803DE7E0220BA8D200E8
:102A8000028080228360002352420A4302710121A6
:102A90004371FEF751FDEAE6065C0040025C00402F
:102AA000FFFDFFFF485C0040FFFBFFFFFFEFFFFF64
:102AB000FFF7FFFF66020020FFFEFFFFFFBFFFFFE3
:102AC000005C004006600040046000400060004080
:102AD0008F8FFFFF8080FFFFFF7FFFFF8080000060
:102AE00088020020026000408FBFFFFF0B785B066A
:102AF00007D14B78052B04D180228B781343014AF0
:102B0000138070474C5C0040F7B50D008E780A7951
:102B10004B79C9781B02890713433000890F009352
:102B2000FFF7BEFC254A83009B180193244A1B88AB
:102B30000F2413408022344022431343EA780700D5
:102B40009207920F022A04D00020032A31D1862551
:102B500000E080252D021D43009BF6095B055B0DFF
:102B600018000093FFF7D8FC01227B0072409B18ED
:102B7000144A9B0064009852A419134B009A240134
:102B80001B199A819F730C23012E00D1083B02244C
:102B90009C406C40012E0DD10C4B1C40FFF7D2FC29
:102BA000019B1C80BFF34F8FBFF36F8FFFF7D6FCE5
:102BB0000120FEBD70239C43F0E7C046005C00404E
:102BC0007070FFFF0060004088020020FF8FFFFF51
:102BD0000F20084070B5C9094500064C6D182D013D
:102BE0006251651900246C602B816C81FFF730FD08
:102BF000012070BD8802002007B50022130080214B
:102C00000092FFF7E5FF07BD0F2270B5C80911401C
:102C10004900114B091809015B189D7B0F4BAD0052
:102C2000ED182B880E4A012810D10E490B40134392
:102C30000422012494405C40FFF784FC2C80BFF305
:102C40004F8FBFF36F8FFFF789FC70BD06490B40B4
:102C500013430C22EDE7C04688020020005C0040D0
:102C60008080FFFFBF8FFFFF8FBFFFFF0F2070B57A
:102C7000CB09014049001F4AC91809015218957B28
:102C80001D4AAD00AD182C881C4A1443012B26D1D7
:102C900040221B490A431440C0228021D200224016
:102CA000C9008A4211D00C22012B00D1083A210020
:102CB000D1400A0003210A40012A14D10B32012B12
:102CC00000D1083A022393405C40FFF73BFC2C8084
:102CD000BFF34F8FBFF36F8FFFF740FC70BD8022B3
:102CE0000849D201D6E7084A013B1340313B1C405A
:102CF000EBE7C04688020020005C004080800000B6
:102D0000BF8F00008FBF000030D0FFFF10B5BFF3B2
:102D10004F8FBFF36F8FFFF721FC10BD70B504001C
:102D2000FFF710FC01220021FF20094B094D9600FE
:102D3000013271530433187058709970D970082A91
:102D4000F5D12000FFF7E2FFC022034B1A8070BDCF
:102D500067020020005C00406402002010B5FFF70D
:102D6000F1FB10BD024A034B11880B4313807047DF
:102D7000585C00400080FFFF10B5040000F016F81A
:102D80000021084B9A1C5033D1871980D18F064BF4
:102D90000B43D387FFF7A2FC2000FFF7E3FF0120DE
:102DA00010BDC046005C004000DDFFFF03220F4B5A
:102DB00082B0DA8700220092009AC72A0DD9022138
:102DC000DA8F8A43DA8700230193019BC72B08D946
:102DD0000022074BDA8702B07047C046009A0132E2
:102DE000E9E7C046019B0133EEE7C046025C0040C4
:102DF000065C004010B53E2808D91F304309012465
:102E00002020DBB258430C70137010BD0130430812
:102E100000240220F5E70000F7B56B469F1DDE1D7C
:102E200004000D00100039003200FFF7E3FF3A788C
:102E300033789B1A9B02D20313439BB2002B01D120
:102E400080231B0264006419024AA400A418638052
:102E5000F7BDC046006000400D48854600F025F8EB
:102E60000C480D490D4A002302E0D458C4500433E5
:102E7000C4188C42F9D30A4A0A4C002301E01360BB
:102E80000432A242FBD300F07BFEFDF703FAFEE71B
:102E900000400020000000202400002080400008A6
:102EA000240000208C030020FEE7704770B5050069
:102EB000FA200D4B80001978FDF72AF90B4C010020
:102EC0002068FDF725F900F06DF804000120002CC2
:102ED00009D1032D07D802382200290000F02EF86E
:102EE0002000034B1D6070BD1C0000201800002056
:102EF00020000020034A044B11681B785B18136004
:102F00007047C046880300201C000020014B186851
:102F10007047C0468803002070B50400FFF7F6FF35
:102F20000500631C02D0044B1B78E418FFF7EEFF8A
:102F3000401BA042FAD370BD1C00002070B50400F5
:102F40000D00032903D98A211348FFF7A5FAFF20B2
:102F5000032203002240A901D20001409340914086
:102F6000002C0BDBC0200D4AA408A400A41880008C
:102F700022589A4313000B43235070BD0F22144074
:102F8000083C074AA408A400A418E2699A43130065
:102F90000B43E361F1E7C0469C3D000800E100E01F
:102FA00000ED00E08022431E5204012093420DD226
:102FB000C021074A07485360036A09061B021B0A1F
:102FC0000B43036200200723906013607047C046E4
:102FD00010E000E000ED00E0F0B5040085B000284E
:102FE00002D1012005B0F0BD0368002B48D1236851
:102FF0001B0700D503E123685B0700D52EE123689A
:10300000DB062BD56369012B06D9053304D0892152
:10301000C4488900FFF740FAA3691F2B03D9C148B0
:10302000C149FFF739FA62690423C04D012A00D073
:103030009DE1696B02260B436B636B6B1A436A63FA
:10304000FFF764FF07006B6B334200D188E1F82182
:103050006A6BA3698A43DB0013436B6323689B0697
:1030600000D59FE1636A022B04D9A621AD488900EF
:10307000FFF712FA636A002B00D0DDE10020B1E710
:103080009B0604D13821A748FF31FFF705FA2368D2
:10309000DB0722D56368012B06D9052B04D03E211E
:1030A000A048FF31FFF7F8F90C22A04D6B681340E0
:1030B000042B0BD06B681340082B41D1C0226B68E6
:1030C0005202134080225202934239D12B689B0353
:1030D00003D56368002B00D183E723689B0786D55F
:1030E000E368012B04D972218E48FF31FFF7D4F930
:1030F00023691F2B04D9B9218A484900FFF7CCF96D
:103100000C228A4D6B6813420BD06B681340082B5E
:1031100050D1C0226B6852021340802212029342A7
:1031200048D12B689B0703D5E368012B00D058E7F3
:10313000F8212A6823698A43DB0013432B6056E792
:103140006368012B16D180232A685B0213432B602E
:103150006368002B20D0FFF7D9FE80260700B60257
:103160002B683342B9D1FFF7D1FEC01B6428F7D9D1
:10317000032037E7002B07D12B686D4A13402B60E3
:103180002B686C4A1340E2E7052BF5D180232A68AF
:10319000DB0213432B60D6E7FFF7B8FE802607005B
:1031A000B6022B68334298D0FFF7B0FEC01B6428EC
:1031B000F7D9DDE7E2680123002A0FD02A6802264A
:1031C00013432B60FFF7A2FE07002B683342AFD1F9
:1031D000FFF79CFEC01B0228F7D9C9E72A68022620
:1031E0009A432A60FFF792FE07002B68334200D112
:1031F000FDE6FFF78BFEC01B0228F6D9B8E7E369AE
:10320000012B04D9D92147484900FFF745F9E26964
:103210000123464D002A10D06A6A022613436B62CE
:10322000FFF774FE07006B6A334200D0E3E6FFF756
:103230006DFEC01B0228F6D99AE76A6A02269A43F5
:103240006A62FFF763FE07006B6A334200D1D2E681
:10325000FFF75CFEC01B0228F6D989E7A368012BA3
:1032600006D9052B04D0EF212E484900FFF714F9A9
:10327000802200212D4D5205EB690091134208D1A7
:10328000EB691343EB61EB6913400393039B012349
:1032900000938027284E7F0033683B4218D0A368F4
:1032A000012B25D12A6A13432B62A368002B49D036
:1032B000FFF72CFE022706002B6A3B422AD0009B18
:1032C000012B00D09BE6EB691C4A1340EB6196E6AC
:1032D00033683B433360FFF719FE019033683B428C
:1032E000DDD1FFF713FE019BC01A6428F6D93FE732
:1032F0000122002B06D12B6A934304222B622B6AF6
:103300009343D1E7052BF6D1296A013B0B432B628E
:103310002B6AC8E7FFF7FAFD094B801B9842CBD90F
:1033200026E7C0461E3E00082502000000100240AD
:10333000FFFFFEFFFFFFFBFF00700040FFFFFFEFFE
:1033400088130000FFF7E2FD022706002B6A3B42CC
:10335000B5D0FFF7DBFD864B801B9842F6D907E717
:10336000FFF7D4FDC01B022800D86CE600E7053249
:1033700003D16A6B9A436A6369E66A6B0226134358
:1033800001226B636B6B93436B63FFF7BFFD070019
:103390006B6B334200D161E6FFF7B8FDC01B02281A
:1033A000F6D9E5E6236A012B03D972487249FFF783
:1033B00073F80C22714D6B681340934209D06B680F
:1033C0001340082B0ED1C0226B6852021340934267
:1033D00008D16B6B9B0300D444E6236A012B00D019
:1033E000FFE53FE6236A002B13D080236A6B5B0264
:1033F00013436B63FFF78AFD80260700B6026B6BF1
:10340000334200D02EE6FFF781FDC01B0228F6D91B
:10341000AEE66B6B5A4A802613406B63FFF776FD6E
:103420000700B6026B6B334200D11BE6FFF76EFD5F
:10343000C01B0228F6D99BE60C21504D6A680A4051
:10344000082A79D04F4E022B64D18021A26A4C4BBE
:10345000090213408B4207D080235B029A4203D0BB
:1034600044484949FFF718F8E36A48491A000A40F6
:103470000B4215D0802149038A4211D08021890353
:103480008A420DD0C021424A89031A408A4207D09D
:10349000E0229203934203D036483E49FEF7FCFFF8
:1034A000236B0F2B03D933483B49FEF7F5FF2B68FD
:1034B00033402B60FFF72AFD80260700B6042B68F7
:1034C000334221D10F22EB6A9343226B1343EB6209
:1034D000A16AE36A6A680B43304980240A401343B7
:1034E0006B6080232A685B0413432B60FFF70EFD9B
:1034F0000600A4042B68234200D0BFE5FFF706FDB9
:10350000801B0228F6D933E6FFF700FDC01B022816
:10351000D5D92DE62B68802433402B60FFF7F6FCCD
:103520000600A4042B68234200D1A7E5FFF7EEFCB8
:10353000801B0228F6D91BE6012B00D151E5C022E1
:103540006868A16A5202EB6A02408A4200D048E5EC
:103550000F221340226B934200D042E5F0239B03DD
:103560001840E36AC01A431E9841C0B23AE5C0460B
:10357000881300001E3E0008620200000010024096
:10358000FFFFFEFFFFFFFFFEA1020000FFFFF3FFB2
:10359000FFFFFBFFA2020000A3020000FF7FC2FFAB
:1035A0000C2070B5114D6B681840082808D00C38F5
:1035B000434258410E4B404218400E4BC01870BD5C
:1035C0000F200D499A0C02408C5CEA6A0B490240BC
:1035D000895CC02252021340934204D10848FCF790
:1035E00097FD6043EBE70348F9E7C046001002404F
:1035F000005A620200127A00704000086040000821
:10360000006CDC02F7B504000F00002801D1012096
:10361000FEBD03685B0704D1C5215B488900FEF746
:103620003BFF012F03D958485849FEF735FF0122C7
:10363000574D2B681340BB421DD323689A0723D4F0
:103640002368DB074AD401232A681A40BA427AD891
:103650002368504D5B077ED4FFF7A2FF6B684E4A8C
:103660001B061B0FD35C4D49D84008600320FFF7B1
:103670001DFC0020CCE72B6893433B432B602B6859
:103680001340BB42C3D1D8E7424E5B0704D5E023C9
:103690007268DB0013437360A368802219009143B2
:1036A00015D0202219009143902910D040221900F2
:1036B0009143A0290BD0102219009143C02906D0B4
:1036C000F02B04D0CD2130488900FEF7E5FEF02232
:1036D00073689343A26813437360B1E76368032B75
:1036E00003D929482E49FEF7D7FE6268294E012AE0
:1036F00003D133689B0306D489E7022A1BD13368C0
:103700009B0100D483E7032173688B4313437360E9
:10371000FFF7FCFB01900C2372681A4063689B0062
:103720009A4290D0FFF7F2FB019BC01A1D4B9842C2
:10373000F1D903206CE7032A01D1736BDAE7336810
:103740009B07E0D463E72A689A432A602A681A42F2
:1037500000D17DE75BE7E368134A13420DD0A02157
:10376000124AC9001A408A4207D0C022D2009342AE
:1037700003D005480E49FEF78FFE6B680D4A1340D3
:10378000E26813436B6067E71E3E00081503000004
:1037900000200240001002405040000818000020A5
:1037A0003B03000088130000FFFBFFFFFFFDFFFF4E
:1037B00082030000FFF8FFFF10B502682D4B1100D7
:1037C000040019401A4207D08023DB04994203D039
:1037D00029482A49FEF760FE6368294A134207D048
:1037E00080229205934203D023482649FEF754FED7
:1037F000A3685B0004D0A6211F488900FEF74CFE99
:103800008023E2685B029A4203D31B481E49FEF7FD
:1038100043FE2369FF2B03D917481C49FEF73CFEE2
:1038200063693F2B03D914481949FEF735FE8022FE
:10383000184B1205196918480A431A611A69174981
:103840000A401A61626823681343A2681343E2685E
:103850001343226912041A43114B5A6019686269B2
:10386000014012020A431A60602219680A431A6072
:1038700010BDC046FFFFFFFC9D3E00089602000001
:10388000FFFFFFEF97020000990200009A0200007C
:103890009B02000000100240FFC0FFFFFFFFFFF788
:1038A000006C00409023F0B5DB0504000D0085B0EE
:1038B000984212D08D4B98420FD08D4B98420CD02D
:1038C0008C4B984209D08C4B984206D08B4B984237
:1038D00003D0B0218A48FEF7DFFD2B689AB2002A98
:1038E00003D080225202934203D3B1218448FEF7D1
:1038F000D3FD84226B689203934213D019D8882297
:10390000520393420ED009D8032B0BD9113B012B44
:1039100008D9B2217A48FEF7BFFD03E09022520396
:103920009342F6D100272B681A00FA400AD105B05D
:10393000F0BDC42292039342F4D0724A134088220D
:103940009203EDE70122BA4001921A400092019AD7
:10395000134200D1C8E003226B687E001340013B94
:10396000012B1AD8EB68012B05D9934203D0C22151
:103970006348FEF791FD0323B340A26801219A43F7
:10398000EB68B3401343A3606268019B9A436B6882
:103990001B090B40BB401343636003226B68134059
:1039A00093423CD0AB68022B03D9D3215448FEF795
:1039B00073FD0323B340E2689A43AB68B3401343FB
:1039C0000322E3606B681340022B28D19023DB05B0
:1039D0009C420FD0454B9C420CD0454B9C4209D099
:1039E000444B9C4206D0444B9C4203D0E0214448C7
:1039F000FEF752FD2B69072B03D9E1214048FEF762
:103A00004BFD07210F23394089008B40FA089200B3
:103A1000A218106A98432B698B4003431362032357
:103A2000B340032122689A436B680B40B3401343B1
:103A30002360C0236A689B021A4255D0324B023978
:103A40009A6903200A439A619B69BA080B40039361
:103A5000039B2E4B9200D2180F23384080008340E6
:103A600090269168F60599430023B44210D01F4E6A
:103A70000133B4420CD01E4E0133B44208D01D4E67
:103A80000133B44204D0224BE3185E1EB341043329
:103A900083400B4393601F4B009A996868680A4300
:103AA000C00202D40A0000998A439A60D968009A39
:103AB00068680A43800202D40A0000998A43DA60E7
:103AC0005968009A68680A43800302D40A00009982
:103AD0008A435A601968009A68680A43C00302D48E
:103AE0000A0000998A431A6001371CE70004004865
:103AF00000080048000C004800100048001400486E
:103B00001F3F0008FFFFEFFF0010024000000140D0
:103B100000F0FFB70004014070B504000D1E04D191
:103B200084210548FF31FEF7B7FC20692840431E79
:103B30009841C0B270BDC0461F3F000870B5050077
:103B40000C001600002904D1D12108484900FEF7D5
:103B5000A3FC012E06D9A4210448FF31FEF79CFCEA
:103B6000AC6170BD002EFBD1AC62FAE71F3F0008CC
:103B700003008218934200D1704719700133F9E7AE
:103B800070B500260C4C0D4D641BA410A64209D143
:103B90000026FEF782FC0A4C0A4D641BA410A642C4
:103BA00005D170BDB300EB5898470136EEE7B3007E
:103BB000EB5898470136F2E7804000088040000843
:103BC0008040000880400008002310B59A4200D1D0
:0C3BD00010BDCC5CC4540133F8E70000C9
:103BDC0000010002010001010102010302000201C7
:103BEC00020202030301030300FF0100010000FFB6
:103BFC00FF0000010001FF00006869006A6B6C6D3A
:103C0C006E6F70710072007300000048400000007D
:103C1C000000004880000000000400480100000083
:103C2C0000040048020000000000004804000000EE
:103C3C0000000048080000000000004810000000D0
:103C4C000000004820000000576F726B204C6F6121
:103C5C00666572204C61627300434F444558204B9B
:103C6C004559424F52454420526576204132004B13
:103C7C004559424F5245442D41322D3030303100A0
:103C8C004D6163726F204B6579626F617264002FB6
:103C9C0055736572732F73746576652F446F6375F6
:103CAC006D656E74732F436F6465784B422F636F31
:103CBC006465782D6D6963726F2F6669726D7761BB
:103CCC0072652F74686972645F70617274792F7495
:103CDC00696E797573622F68772F6D63752F7374A6
:103CEC002F73746D3332663078785F68616C5F6403
:103CFC0072697665722F5372632F73746D333266EB
:103D0C003078785F68616C5F6164632E63002F5557
:103D1C00736572732F73746576652F446F63756D5D
:103D2C00656E74732F436F6465784B422F636F64B9
:103D3C0065782D6D6963726F2F6669726D7761722C
:103D4C00652F74686972645F70617274792F74691D
:103D5C006E797573622F68772F6D63752F73742F5F
:103D6C0073746D3332663078785F68616C5F64723F
:103D7C00697665722F5372632F73746D33326630AC
:103D8C0078785F68616C5F6164635F65782E63004F
:103D9C002F55736572732F73746576652F446F633B
:103DAC00756D656E74732F436F6465784B422F632A
:103DBC006F6465782D6D6963726F2F6669726D77AC
:103DCC006172652F74686972645F70617274792FA7
:103DDC0074696E797573622F68772F6D63752F73A5
:103DEC00742F73746D3332663078785F68616C5FF2
:103DFC006472697665722F5372632F73746D3332EC
:103E0C00663078785F68616C5F636F727465782E6A
:103E1C0063002F55736572732F73746576652F4429
:103E2C006F63756D656E74732F436F6465784B4269
:103E3C002F636F6465782D6D6963726F2F6669727D
:103E4C006D776172652F74686972645F70617274EA
:103E5C00792F74696E797573622F68772F6D63751E
:103E6C002F73742F73746D3332663078785F68619A
:103E7C006C5F6472697665722F5372632F73746D05
:103E8C003332663078785F68616C5F7263632E637F
:103E9C00002F55736572732F73746576652F446F9D
:103EAC0063756D656E74732F436F6465784B422F29
:103EBC00636F6465782D6D6963726F2F6669726DBF
:103ECC00776172652F74686972645F70617274795E
:103EDC002F74696E797573622F68772F6D63752FE8
:103EEC0073742F73746D3332663078785F68616CDD
:103EFC005F6472697665722F5372632F73746D33BE
:103F0C0032663078785F68616C5F7263635F657886
:103F1C002E63002F55736572732F73746576652F3E
:103F2C00446F63756D656E74732F436F6465784B66
:103F3C00422F636F6465782D6D6963726F2F6669AC
:103F4C00726D776172652F74686972645F706172EB
:103F5C0074792F74696E797573622F68772F6D631E
:103F6C00752F73742F73746D3332663078785F6885
:103F7C00616C5F6472697665722F5372632F737410
:103F8C006D3332663078785F68616C5F6770696F2B
:103F9C002E630000B43F0008543C0008653C000848
:103FAC007B3C00088C3C000809040902220001013A
:103FBC0000803209040000010301010409211101F0
:103FCC0000012241000705810310000505010906C7
:103FDC00A101050719E029E71500250195087501D0
:103FEC0081029501750881010508190129059505BE
:103FFC0075019102950175039101050719002AFFBE
:10400C0000150026FF00950675088100C0120100FE
:10401C000200000040FECA444B00010102030100F3
:10402C000000000071200008572000085D200008E7
:10403C007D2000080D2100088522000800000000EA
:10404C00000000000000000000000000010203045A
:10405C00060708090102030405060708090A0B0CE8
:10406C000D0E0F1002030405060708090A0B0C0DB0
:04407C000E0F101003
:10408000151400080C000000CC000020C000000047
:1040900000000000FF00000000127A000100000094
:0440A0000400000018
:0400000508002E5968
:00000001FF
